{
  "_format": "hh3-artifact-1",
  "contractName": "PropertyRegistry",
  "sourceName": "contracts/PropertyRegistry.sol",
  "abi": [
    {
      "inputs": [
        {
          "internalType": "address",
          "name": "admin",
          "type": "address"
        }
      ],
      "stateMutability": "nonpayable",
      "type": "constructor"
    },
    {
      "inputs": [],
      "name": "AccessControlBadConfirmation",
      "type": "error"
    },
    {
      "inputs": [
        {
          "internalType": "address",
          "name": "account",
          "type": "address"
        },
        {
          "internalType": "bytes32",
          "name": "neededRole",
          "type": "bytes32"
        }
      ],
      "name": "AccessControlUnauthorizedAccount",
      "type": "error"
    },
    {
      "inputs": [
        {
          "internalType": "uint256",
          "name": "propertyId",
          "type": "uint256"
        }
      ],
      "name": "AlreadyRevoked",
      "type": "error"
    },
    {
      "inputs": [
        {
          "internalType": "string",
          "name": "titleNumber",
          "type": "string"
        },
        {
          "internalType": "uint256",
          "name": "existingPropertyId",
          "type": "uint256"
        }
      ],
      "name": "DuplicateTitleNumber",
      "type": "error"
    },
    {
      "inputs": [
        {
          "internalType": "uint256",
          "name": "propertyId",
          "type": "uint256"
        }
      ],
      "name": "PropertyNotFound",
      "type": "error"
    },
    {
      "inputs": [],
      "name": "TitleNumberRequired",
      "type": "error"
    },
    {
      "anonymous": false,
      "inputs": [
        {
          "indexed": true,
          "internalType": "uint256",
          "name": "propertyId",
          "type": "uint256"
        },
        {
          "indexed": true,
          "internalType": "address",
          "name": "previousOwner",
          "type": "address"
        },
        {
          "indexed": true,
          "internalType": "address",
          "name": "newOwner",
          "type": "address"
        }
      ],
      "name": "OwnershipTransferred",
      "type": "event"
    },
    {
      "anonymous": false,
      "inputs": [
        {
          "indexed": true,
          "internalType": "uint256",
          "name": "propertyId",
          "type": "uint256"
        },
        {
          "indexed": true,
          "internalType": "string",
          "name": "titleNumber",
          "type": "string"
        },
        {
          "indexed": true,
          "internalType": "address",
          "name": "ownerWallet",
          "type": "address"
        },
        {
          "indexed": false,
          "internalType": "uint256",
          "name": "nftTokenId",
          "type": "uint256"
        },
        {
          "indexed": false,
          "internalType": "bytes32",
          "name": "metadataHash",
          "type": "bytes32"
        }
      ],
      "name": "PropertyRegistered",
      "type": "event"
    },
    {
      "anonymous": false,
      "inputs": [
        {
          "indexed": true,
          "internalType": "uint256",
          "name": "propertyId",
          "type": "uint256"
        },
        {
          "indexed": true,
          "internalType": "string",
          "name": "titleNumber",
          "type": "string"
        },
        {
          "indexed": false,
          "internalType": "address",
          "name": "revokedBy",
          "type": "address"
        }
      ],
      "name": "PropertyRevoked",
      "type": "event"
    },
    {
      "anonymous": false,
      "inputs": [
        {
          "indexed": true,
          "internalType": "uint256",
          "name": "propertyId",
          "type": "uint256"
        },
        {
          "indexed": true,
          "internalType": "address",
          "name": "ownerWallet",
          "type": "address"
        },
        {
          "indexed": false,
          "internalType": "uint256",
          "name": "nftTokenId",
          "type": "uint256"
        },
        {
          "indexed": false,
          "internalType": "bytes32",
          "name": "metadataHash",
          "type": "bytes32"
        }
      ],
      "name": "PropertyUpdated",
      "type": "event"
    },
    {
      "anonymous": false,
      "inputs": [
        {
          "indexed": true,
          "internalType": "bytes32",
          "name": "role",
          "type": "bytes32"
        },
        {
          "indexed": true,
          "internalType": "bytes32",
          "name": "previousAdminRole",
          "type": "bytes32"
        },
        {
          "indexed": true,
          "internalType": "bytes32",
          "name": "newAdminRole",
          "type": "bytes32"
        }
      ],
      "name": "RoleAdminChanged",
      "type": "event"
    },
    {
      "anonymous": false,
      "inputs": [
        {
          "indexed": true,
          "internalType": "bytes32",
          "name": "role",
          "type": "bytes32"
        },
        {
          "indexed": true,
          "internalType": "address",
          "name": "account",
          "type": "address"
        },
        {
          "indexed": true,
          "internalType": "address",
          "name": "sender",
          "type": "address"
        }
      ],
      "name": "RoleGranted",
      "type": "event"
    },
    {
      "anonymous": false,
      "inputs": [
        {
          "indexed": true,
          "internalType": "bytes32",
          "name": "role",
          "type": "bytes32"
        },
        {
          "indexed": true,
          "internalType": "address",
          "name": "account",
          "type": "address"
        },
        {
          "indexed": true,
          "internalType": "address",
          "name": "sender",
          "type": "address"
        }
      ],
      "name": "RoleRevoked",
      "type": "event"
    },
    {
      "inputs": [],
      "name": "DEFAULT_ADMIN_ROLE",
      "outputs": [
        {
          "internalType": "bytes32",
          "name": "",
          "type": "bytes32"
        }
      ],
      "stateMutability": "view",
      "type": "function"
    },
    {
      "inputs": [],
      "name": "REGISTRAR_ROLE",
      "outputs": [
        {
          "internalType": "bytes32",
          "name": "",
          "type": "bytes32"
        }
      ],
      "stateMutability": "view",
      "type": "function"
    },
    {
      "inputs": [
        {
          "internalType": "uint256",
          "name": "propertyId",
          "type": "uint256"
        }
      ],
      "name": "getProperty",
      "outputs": [
        {
          "components": [
            {
              "internalType": "uint256",
              "name": "propertyId",
              "type": "uint256"
            },
            {
              "internalType": "string",
              "name": "titleNumber",
              "type": "string"
            },
            {
              "internalType": "uint256",
              "name": "nftTokenId",
              "type": "uint256"
            },
            {
              "internalType": "address",
              "name": "ownerWallet",
              "type": "address"
            },
            {
              "internalType": "bytes32",
              "name": "metadataHash",
              "type": "bytes32"
            },
            {
              "internalType": "enum PropertyRegistry.VerificationStatus",
              "name": "status",
              "type": "uint8"
            },
            {
              "internalType": "uint256",
              "name": "registeredAt",
              "type": "uint256"
            },
            {
              "internalType": "uint256",
              "name": "updatedAt",
              "type": "uint256"
            }
          ],
          "internalType": "struct PropertyRegistry.RegistryEntry",
          "name": "",
          "type": "tuple"
        }
      ],
      "stateMutability": "view",
      "type": "function"
    },
    {
      "inputs": [
        {
          "internalType": "uint256",
          "name": "nftTokenId",
          "type": "uint256"
        }
      ],
      "name": "getPropertyByNft",
      "outputs": [
        {
          "components": [
            {
              "internalType": "uint256",
              "name": "propertyId",
              "type": "uint256"
            },
            {
              "internalType": "string",
              "name": "titleNumber",
              "type": "string"
            },
            {
              "internalType": "uint256",
              "name": "nftTokenId",
              "type": "uint256"
            },
            {
              "internalType": "address",
              "name": "ownerWallet",
              "type": "address"
            },
            {
              "internalType": "bytes32",
              "name": "metadataHash",
              "type": "bytes32"
            },
            {
              "internalType": "enum PropertyRegistry.VerificationStatus",
              "name": "status",
              "type": "uint8"
            },
            {
              "internalType": "uint256",
              "name": "registeredAt",
              "type": "uint256"
            },
            {
              "internalType": "uint256",
              "name": "updatedAt",
              "type": "uint256"
            }
          ],
          "internalType": "struct PropertyRegistry.RegistryEntry",
          "name": "",
          "type": "tuple"
        }
      ],
      "stateMutability": "view",
      "type": "function"
    },
    {
      "inputs": [
        {
          "internalType": "string",
          "name": "titleNumber",
          "type": "string"
        }
      ],
      "name": "getPropertyByTitle",
      "outputs": [
        {
          "components": [
            {
              "internalType": "uint256",
              "name": "propertyId",
              "type": "uint256"
            },
            {
              "internalType": "string",
              "name": "titleNumber",
              "type": "string"
            },
            {
              "internalType": "uint256",
              "name": "nftTokenId",
              "type": "uint256"
            },
            {
              "internalType": "address",
              "name": "ownerWallet",
              "type": "address"
            },
            {
              "internalType": "bytes32",
              "name": "metadataHash",
              "type": "bytes32"
            },
            {
              "internalType": "enum PropertyRegistry.VerificationStatus",
              "name": "status",
              "type": "uint8"
            },
            {
              "internalType": "uint256",
              "name": "registeredAt",
              "type": "uint256"
            },
            {
              "internalType": "uint256",
              "name": "updatedAt",
              "type": "uint256"
            }
          ],
          "internalType": "struct PropertyRegistry.RegistryEntry",
          "name": "",
          "type": "tuple"
        }
      ],
      "stateMutability": "view",
      "type": "function"
    },
    {
      "inputs": [
        {
          "internalType": "bytes32",
          "name": "role",
          "type": "bytes32"
        }
      ],
      "name": "getRoleAdmin",
      "outputs": [
        {
          "internalType": "bytes32",
          "name": "",
          "type": "bytes32"
        }
      ],
      "stateMutability": "view",
      "type": "function"
    },
    {
      "inputs": [
        {
          "internalType": "bytes32",
          "name": "role",
          "type": "bytes32"
        },
        {
          "internalType": "address",
          "name": "account",
          "type": "address"
        }
      ],
      "name": "grantRole",
      "outputs": [],
      "stateMutability": "nonpayable",
      "type": "function"
    },
    {
      "inputs": [
        {
          "internalType": "bytes32",
          "name": "role",
          "type": "bytes32"
        },
        {
          "internalType": "address",
          "name": "account",
          "type": "address"
        }
      ],
      "name": "hasRole",
      "outputs": [
        {
          "internalType": "bool",
          "name": "",
          "type": "bool"
        }
      ],
      "stateMutability": "view",
      "type": "function"
    },
    {
      "inputs": [
        {
          "internalType": "string",
          "name": "titleNumber",
          "type": "string"
        }
      ],
      "name": "isTitleRegistered",
      "outputs": [
        {
          "internalType": "bool",
          "name": "",
          "type": "bool"
        }
      ],
      "stateMutability": "view",
      "type": "function"
    },
    {
      "inputs": [
        {
          "internalType": "string",
          "name": "titleNumber",
          "type": "string"
        },
        {
          "internalType": "uint256",
          "name": "nftTokenId",
          "type": "uint256"
        },
        {
          "internalType": "address",
          "name": "ownerWallet",
          "type": "address"
        },
        {
          "internalType": "bytes32",
          "name": "metadataHash",
          "type": "bytes32"
        }
      ],
      "name": "registerProperty",
      "outputs": [
        {
          "internalType": "uint256",
          "name": "propertyId",
          "type": "uint256"
        }
      ],
      "stateMutability": "nonpayable",
      "type": "function"
    },
    {
      "inputs": [
        {
          "internalType": "bytes32",
          "name": "role",
          "type": "bytes32"
        },
        {
          "internalType": "address",
          "name": "callerConfirmation",
          "type": "address"
        }
      ],
      "name": "renounceRole",
      "outputs": [],
      "stateMutability": "nonpayable",
      "type": "function"
    },
    {
      "inputs": [
        {
          "internalType": "uint256",
          "name": "propertyId",
          "type": "uint256"
        }
      ],
      "name": "revokeProperty",
      "outputs": [],
      "stateMutability": "nonpayable",
      "type": "function"
    },
    {
      "inputs": [
        {
          "internalType": "bytes32",
          "name": "role",
          "type": "bytes32"
        },
        {
          "internalType": "address",
          "name": "account",
          "type": "address"
        }
      ],
      "name": "revokeRole",
      "outputs": [],
      "stateMutability": "nonpayable",
      "type": "function"
    },
    {
      "inputs": [
        {
          "internalType": "bytes4",
          "name": "interfaceId",
          "type": "bytes4"
        }
      ],
      "name": "supportsInterface",
      "outputs": [
        {
          "internalType": "bool",
          "name": "",
          "type": "bool"
        }
      ],
      "stateMutability": "view",
      "type": "function"
    },
    {
      "inputs": [],
      "name": "totalRegistered",
      "outputs": [
        {
          "internalType": "uint256",
          "name": "",
          "type": "uint256"
        }
      ],
      "stateMutability": "view",
      "type": "function"
    },
    {
      "inputs": [
        {
          "internalType": "uint256",
          "name": "propertyId",
          "type": "uint256"
        },
        {
          "internalType": "address",
          "name": "newOwner",
          "type": "address"
        }
      ],
      "name": "transferOwnership",
      "outputs": [],
      "stateMutability": "nonpayable",
      "type": "function"
    },
    {
      "inputs": [
        {
          "internalType": "uint256",
          "name": "propertyId",
          "type": "uint256"
        },
        {
          "internalType": "uint256",
          "name": "nftTokenId",
          "type": "uint256"
        },
        {
          "internalType": "address",
          "name": "ownerWallet",
          "type": "address"
        },
        {
          "internalType": "bytes32",
          "name": "metadataHash",
          "type": "bytes32"
        }
      ],
      "name": "updateProperty",
      "outputs": [],
      "stateMutability": "nonpayable",
      "type": "function"
    }
  ],
  "bytecode": "0x60803461007257601f6112cc38819003918201601f19168301916001600160401b038311848410176100765780849260209460405283398101031261007257516001600160a01b0381168103610072578061005c6100629261008a565b50610100565b506040516110d890816101948239f35b5f80fd5b634e487b7160e01b5f52604160045260245ffd5b6001600160a01b0381165f9081525f5160206112ac5f395f51905f52602052604090205460ff166100fb576001600160a01b03165f8181525f5160206112ac5f395f51905f5260205260408120805460ff191660011790553391905f51602061126c5f395f51905f528180a4600190565b505f90565b6001600160a01b0381165f9081525f51602061128c5f395f51905f52602052604090205460ff166100fb576001600160a01b03165f8181525f51602061128c5f395f51905f5260205260408120805460ff191660011790553391907fedcc084d3dcd65a1f7f23c65c46722faca6953d28e43150a467cf43e5c309238905f51602061126c5f395f51905f529080a460019056fe6080806040526004361015610012575f80fd5b5f3560e01c90816301ffc9a714610c6d57508063248a9ca314610c4757806329507f7314610b8f5780632f2ff15d14610b5e57806332665ffb14610a9857806336568abe14610a54578063499b81c7146109ce5780635e78e28d146108a05780637112ad66146107c557806391d148541461077d578063927416c014610760578063a217fddf14610746578063d547741f1461070e578063d57740391461037e578063e8563b96146101f3578063f4173555146101025763f68e9553146100d7575f80fd5b346100fe575f3660031901126100fe5760206040515f5160206110835f395f51905f528152f35b5f80fd5b346100fe5760203660031901126100fe5760043561011e610ee6565b805f52600360205260405f208054156101e0576005810160ff81541660038110156101cc576002146101b95761018991600191600260ff19825416179055426007820155015f6040516020816101748186610e7c565b60028152030190205560405191828092610e7c565b039020907f231556521699963e0ee162eefaa0119b48bc160569584c881cc01503faea9bfd6020604051338152a3005b8263e80455f560e01b5f5260045260245ffd5b634e487b7160e01b5f52602160045260245ffd5b50632d84847b60e01b5f5260045260245ffd5b346100fe5760203660031901126100fe576004356001600160401b0381116100fe576102256020913690600401610d7e565b919061022f610dfb565b508260405193849283378101600281520301902054801561036b575f52600360205260405f2060405161026181610dbc565b815481526040516001830180545f9161027982610e38565b80855291600181169081156103445750600114610307575b61030385600788876102a581890382610dd8565b60208401526002810154604084015260038101546001600160a01b031660608401526004810154608084015260058101546102e69060ff1660a08501610e70565b600681015460c0840152015460e082015260405191829182610cec565b0390f35b5f908152602081209092505b81831061032a5750508101602001816102a5610291565b600181602092949394548385880101520191019190610313565b60ff191660208087019190915292151560051b850190920192508391506102a59050610291565b632d84847b60e01b5f525f60045260245ffd5b346100fe5760803660031901126100fe576004356001600160401b0381116100fe576103ae903690600401610d7e565b602435916103ba610cd6565b92606435906103c7610ee6565b83156106ff5760405184848237602081868101600281520301902054801515806106d9575b61069857506001805401938460015584604051828682376020818481016002815203019020556040519561041f87610dbc565b8587526001600160401b0382116106845760405192610448601f8401601f191660200185610dd8565b82845236838701116100fe57828660208601375f60208486010152602088019384526040880192818452606089019260018060a01b03169687845260808a0187815260a08b01946001865260c08c019642885260e08d0198428a528c5f526003602052600160405f209e8f9051815501905180519060018060401b0382116106845781906104d68454610e38565b601f8111610634575b50602090601f83116001146105d1575f926105c6575b50508160011b915f199060031b1c19161790555b5160028d0155516003808d0180546001600160a01b0319166001600160a01b039390931692909217909155905160048c015593519960058101948b10156101cc5760078a977ffd7b2a9f18b3483fc7f0294cb420e14caef8a3bfa47a982826fb9e39b73b88559760409760209e60ff8019835416911617905551600684015551910155826105b5575b818451928392833781015f815203902094825191825288820152a4604051908152f35b825f5260048a5285845f2055610592565b015190505f806104f5565b5f8581528281209350601f198516905b81811061061c5750908460019594939210610604575b505050811b019055610509565b01515f1960f88460031b161c191690555f80806105f7565b929360206001819287860151815501950193016105e1565b909150835f5260205f20601f840160051c8101916020851061067a575b90601f859493920160051c01905b81811061066c57506104df565b5f815584935060010161065f565b9091508190610651565b634e487b7160e01b5f52604160045260245ffd5b60648486809360405194859363fa51018b60e01b855260406004860152816044860152858501375f8383018501526024830152601f01601f19168101030190fd5b50805f52600360205260ff600560405f2001541660038110156101cc57600214156103ec565b63353b02ef60e21b5f5260045ffd5b346100fe5760403660031901126100fe5761074460043561072d610cc0565b9061073f61073a82610dab565b610f42565b611002565b005b346100fe575f3660031901126100fe5760206040515f8152f35b346100fe575f3660031901126100fe576020600154604051908152f35b346100fe5760403660031901126100fe57610796610cc0565b6004355f525f60205260405f209060018060a01b03165f52602052602060ff60405f2054166040519015158152f35b346100fe5760203660031901126100fe576004356107e1610dfb565b50805f52600460205260405f205490811561088e57505f52600360205260405f2060405161080e81610dbc565b815481526040516001830180545f9161082682610e38565b808552916001811690811561034457506001146108515761030385600788876102a581890382610dd8565b5f908152602081209092505b8183106108745750508101602001816102a5610291565b60018160209294939454838588010152019101919061085d565b632d84847b60e01b5f5260045260245ffd5b346100fe5760803660031901126100fe576024356004356108bf610cd6565b6064356108ca610ee6565b825f52600360205260405f208054156109bb5760ff60058201541660038110156101cc576002146109a85791604091838660027f73959b4e4dcfa2df65d85e0c99dd1486239ce852d3f32163f3cd98b9a1d9baa2960180548015158061099e575b61098c575b50556003810180546001600160a01b0319166001600160a01b03851617905560048101829055426007909101558561097a575b825195865260208601526001600160a01b031693a3005b855f52600460205284835f2055610963565b5f5260046020525f8681205589610930565b508281141561092b565b8363e80455f560e01b5f5260045260245ffd5b83632d84847b60e01b5f5260045260245ffd5b346100fe5760203660031901126100fe576004356001600160401b0381116100fe57610a006020913690600401610d7e565b9190826040519384928337810160028152030190205480151580610a2c575b6020906040519015158152f35b505f52600360205260ff600560405f2001541660038110156101cc5760026020911415610a1f565b346100fe5760403660031901126100fe57610a6d610cc0565b336001600160a01b03821603610a895761074490600435611002565b63334bd91960e11b5f5260045ffd5b346100fe5760203660031901126100fe57600435610ab4610dfb565b50805f52600360205260405f20541561088e575f52600360205260405f20604051610ade81610dbc565b815481526040516001830180545f91610af682610e38565b80855291600181169081156103445750600114610b215761030385600788876102a581890382610dd8565b5f908152602081209092505b818310610b445750508101602001816102a5610291565b600181602092949394548385880101520191019190610b2d565b346100fe5760403660031901126100fe57610744600435610b7d610cc0565b90610b8a61073a82610dab565b610f7a565b346100fe5760403660031901126100fe57600435610bab610cc0565b610bb3610ee6565b815f52600360205260405f2090815415610c345760ff60058301541660038110156101cc576002146101b9576003820180546001600160a01b039283166001600160a01b03198216811790925542600790940193909355929116907f16b85f49bf01212961345d3016c9a531894accf62eb7680f2045d79185cc0ec05f80a4005b82632d84847b60e01b5f5260045260245ffd5b346100fe5760203660031901126100fe576020610c65600435610dab565b604051908152f35b346100fe5760203660031901126100fe576004359063ffffffff60e01b82168092036100fe57602091637965db0b60e01b8114908115610caf575b5015158152f35b6301ffc9a760e01b14905083610ca8565b602435906001600160a01b03821682036100fe57565b604435906001600160a01b03821682036100fe57565b602081528151602082015260208083015161010060408401528051918291826101208601520161014084015e5f61014082840101526040830151606083015260018060a01b036060840151166080830152608083015160a083015260a083015160038110156101cc576101409360e09160c085015260c0810151828501520151610100830152601f8019910116010190565b9181601f840112156100fe578235916001600160401b0383116100fe57602083818601950101116100fe57565b5f525f602052600160405f20015490565b61010081019081106001600160401b0382111761068457604052565b601f909101601f19168101906001600160401b0382119082101761068457604052565b60405190610e0882610dbc565b5f60e083828152606060208201528260408201528260608201528260808201528260a08201528260c08201520152565b90600182811c92168015610e66575b6020831014610e5257565b634e487b7160e01b5f52602260045260245ffd5b91607f1691610e47565b60038210156101cc5752565b5f9291815491610e8b83610e38565b9260018116908115610ed35750600114610ea457505050565b90919293505f5260205f205f905b838210610ebf5750500190565b600181602092548486015201910190610eb2565b60ff191683525050811515909102019150565b335f9081527f01ddc098da42acdf4176da08ec75800bc0fb2bce2be978b2037bcb0ae6966519602052604090205460ff1615610f1e57565b63e2517d3f60e01b5f52336004525f5160206110835f395f51905f5260245260445ffd5b5f8181526020818152604080832033845290915290205460ff1615610f645750565b63e2517d3f60e01b5f523360045260245260445ffd5b5f818152602081815260408083206001600160a01b038616845290915290205460ff16610ffc575f818152602081815260408083206001600160a01b0395909516808452949091528120805460ff19166001179055339291907f2f8788117e7eff1d82e926ec794901d17c78024a50270940304540a733656f0d9080a4600190565b50505f90565b5f818152602081815260408083206001600160a01b038616845290915290205460ff1615610ffc575f818152602081815260408083206001600160a01b0395909516808452949091528120805460ff19169055339291907ff6391f5c32d9c69d2a47ea670b442974b53935d1edc7fd64eb21e047a839171b9080a460019056feedcc084d3dcd65a1f7f23c65c46722faca6953d28e43150a467cf43e5c309238a2646970667358221220480dc19c2c948b4fc0396a8b60d5253f9fe5c7b8e451998e6741ee3023fc43c764736f6c634300081c00332f8788117e7eff1d82e926ec794901d17c78024a50270940304540a733656f0d01ddc098da42acdf4176da08ec75800bc0fb2bce2be978b2037bcb0ae6966519ad3228b676f7d3cd4284a5443f17f1962b36e491b30a40b2405849e597ba5fb5",
  "linkReferences": {},
  "deployedLinkReferences": {},
  "immutableReferences": {},
  "inputSourceName": "project/contracts/PropertyRegistry.sol",
  "buildInfoId": "solc-0_8_28-4055fe1939c74cfca9b7019019cba32059ddf960"
}