{
  "_format": "hh3-artifact-1",
  "contractName": "RealEstate",
  "sourceName": "contracts/RealEstate.sol",
  "abi": [
    {
      "inputs": [
        {
          "internalType": "address",
          "name": "_governmentWallet",
          "type": "address"
        }
      ],
      "stateMutability": "nonpayable",
      "type": "constructor"
    },
    {
      "inputs": [],
      "name": "AccessControlBadConfirmation",
      "type": "error"
    },
    {
      "inputs": [
        {
          "internalType": "address",
          "name": "account",
          "type": "address"
        },
        {
          "internalType": "bytes32",
          "name": "neededRole",
          "type": "bytes32"
        }
      ],
      "name": "AccessControlUnauthorizedAccount",
      "type": "error"
    },
    {
      "inputs": [
        {
          "internalType": "address",
          "name": "sender",
          "type": "address"
        },
        {
          "internalType": "uint256",
          "name": "tokenId",
          "type": "uint256"
        },
        {
          "internalType": "address",
          "name": "owner",
          "type": "address"
        }
      ],
      "name": "ERC721IncorrectOwner",
      "type": "error"
    },
    {
      "inputs": [
        {
          "internalType": "address",
          "name": "operator",
          "type": "address"
        },
        {
          "internalType": "uint256",
          "name": "tokenId",
          "type": "uint256"
        }
      ],
      "name": "ERC721InsufficientApproval",
      "type": "error"
    },
    {
      "inputs": [
        {
          "internalType": "address",
          "name": "approver",
          "type": "address"
        }
      ],
      "name": "ERC721InvalidApprover",
      "type": "error"
    },
    {
      "inputs": [
        {
          "internalType": "address",
          "name": "operator",
          "type": "address"
        }
      ],
      "name": "ERC721InvalidOperator",
      "type": "error"
    },
    {
      "inputs": [
        {
          "internalType": "address",
          "name": "owner",
          "type": "address"
        }
      ],
      "name": "ERC721InvalidOwner",
      "type": "error"
    },
    {
      "inputs": [
        {
          "internalType": "address",
          "name": "receiver",
          "type": "address"
        }
      ],
      "name": "ERC721InvalidReceiver",
      "type": "error"
    },
    {
      "inputs": [
        {
          "internalType": "address",
          "name": "sender",
          "type": "address"
        }
      ],
      "name": "ERC721InvalidSender",
      "type": "error"
    },
    {
      "inputs": [
        {
          "internalType": "uint256",
          "name": "tokenId",
          "type": "uint256"
        }
      ],
      "name": "ERC721NonexistentToken",
      "type": "error"
    },
    {
      "anonymous": false,
      "inputs": [
        {
          "indexed": true,
          "internalType": "address",
          "name": "owner",
          "type": "address"
        },
        {
          "indexed": true,
          "internalType": "address",
          "name": "approved",
          "type": "address"
        },
        {
          "indexed": true,
          "internalType": "uint256",
          "name": "tokenId",
          "type": "uint256"
        }
      ],
      "name": "Approval",
      "type": "event"
    },
    {
      "anonymous": false,
      "inputs": [
        {
          "indexed": true,
          "internalType": "address",
          "name": "owner",
          "type": "address"
        },
        {
          "indexed": true,
          "internalType": "address",
          "name": "operator",
          "type": "address"
        },
        {
          "indexed": false,
          "internalType": "bool",
          "name": "approved",
          "type": "bool"
        }
      ],
      "name": "ApprovalForAll",
      "type": "event"
    },
    {
      "anonymous": false,
      "inputs": [
        {
          "indexed": true,
          "internalType": "uint256",
          "name": "propertyId",
          "type": "uint256"
        },
        {
          "indexed": false,
          "internalType": "uint256",
          "name": "versionNo",
          "type": "uint256"
        },
        {
          "indexed": false,
          "internalType": "bytes32",
          "name": "metadataHash",
          "type": "bytes32"
        }
      ],
      "name": "MetadataUpdated",
      "type": "event"
    },
    {
      "anonymous": false,
      "inputs": [
        {
          "indexed": true,
          "internalType": "uint256",
          "name": "propertyId",
          "type": "uint256"
        },
        {
          "indexed": false,
          "internalType": "uint256",
          "name": "price",
          "type": "uint256"
        }
      ],
      "name": "PropertyListed",
      "type": "event"
    },
    {
      "anonymous": false,
      "inputs": [
        {
          "indexed": true,
          "internalType": "uint256",
          "name": "propertyId",
          "type": "uint256"
        },
        {
          "indexed": false,
          "internalType": "address",
          "name": "from",
          "type": "address"
        },
        {
          "indexed": false,
          "internalType": "address",
          "name": "to",
          "type": "address"
        },
        {
          "indexed": false,
          "internalType": "uint256",
          "name": "price",
          "type": "uint256"
        }
      ],
      "name": "PropertySold",
      "type": "event"
    },
    {
      "anonymous": false,
      "inputs": [
        {
          "indexed": true,
          "internalType": "uint256",
          "name": "requestId",
          "type": "uint256"
        },
        {
          "indexed": false,
          "internalType": "uint256",
          "name": "propertyId",
          "type": "uint256"
        }
      ],
      "name": "RequestApproved",
      "type": "event"
    },
    {
      "anonymous": false,
      "inputs": [
        {
          "indexed": true,
          "internalType": "uint256",
          "name": "requestId",
          "type": "uint256"
        },
        {
          "indexed": false,
          "internalType": "string",
          "name": "reason",
          "type": "string"
        }
      ],
      "name": "RequestDeclined",
      "type": "event"
    },
    {
      "anonymous": false,
      "inputs": [
        {
          "indexed": true,
          "internalType": "uint256",
          "name": "requestId",
          "type": "uint256"
        },
        {
          "indexed": false,
          "internalType": "address",
          "name": "requester",
          "type": "address"
        },
        {
          "indexed": false,
          "internalType": "string",
          "name": "name",
          "type": "string"
        }
      ],
      "name": "RequestSubmitted",
      "type": "event"
    },
    {
      "anonymous": false,
      "inputs": [
        {
          "indexed": true,
          "internalType": "bytes32",
          "name": "role",
          "type": "bytes32"
        },
        {
          "indexed": true,
          "internalType": "bytes32",
          "name": "previousAdminRole",
          "type": "bytes32"
        },
        {
          "indexed": true,
          "internalType": "bytes32",
          "name": "newAdminRole",
          "type": "bytes32"
        }
      ],
      "name": "RoleAdminChanged",
      "type": "event"
    },
    {
      "anonymous": false,
      "inputs": [
        {
          "indexed": true,
          "internalType": "bytes32",
          "name": "role",
          "type": "bytes32"
        },
        {
          "indexed": true,
          "internalType": "address",
          "name": "account",
          "type": "address"
        },
        {
          "indexed": true,
          "internalType": "address",
          "name": "sender",
          "type": "address"
        }
      ],
      "name": "RoleGranted",
      "type": "event"
    },
    {
      "anonymous": false,
      "inputs": [
        {
          "indexed": true,
          "internalType": "bytes32",
          "name": "role",
          "type": "bytes32"
        },
        {
          "indexed": true,
          "internalType": "address",
          "name": "account",
          "type": "address"
        },
        {
          "indexed": true,
          "internalType": "address",
          "name": "sender",
          "type": "address"
        }
      ],
      "name": "RoleRevoked",
      "type": "event"
    },
    {
      "anonymous": false,
      "inputs": [
        {
          "indexed": true,
          "internalType": "address",
          "name": "from",
          "type": "address"
        },
        {
          "indexed": true,
          "internalType": "address",
          "name": "to",
          "type": "address"
        },
        {
          "indexed": true,
          "internalType": "uint256",
          "name": "tokenId",
          "type": "uint256"
        }
      ],
      "name": "Transfer",
      "type": "event"
    },
    {
      "inputs": [],
      "name": "ADMIN_ROLE",
      "outputs": [
        {
          "internalType": "bytes32",
          "name": "",
          "type": "bytes32"
        }
      ],
      "stateMutability": "view",
      "type": "function"
    },
    {
      "inputs": [],
      "name": "DEFAULT_ADMIN_ROLE",
      "outputs": [
        {
          "internalType": "bytes32",
          "name": "",
          "type": "bytes32"
        }
      ],
      "stateMutability": "view",
      "type": "function"
    },
    {
      "inputs": [
        {
          "internalType": "address",
          "name": "account",
          "type": "address"
        }
      ],
      "name": "addAdmin",
      "outputs": [],
      "stateMutability": "nonpayable",
      "type": "function"
    },
    {
      "inputs": [
        {
          "internalType": "address",
          "name": "to",
          "type": "address"
        },
        {
          "internalType": "uint256",
          "name": "tokenId",
          "type": "uint256"
        }
      ],
      "name": "approve",
      "outputs": [],
      "stateMutability": "nonpayable",
      "type": "function"
    },
    {
      "inputs": [
        {
          "internalType": "uint256",
          "name": "requestId",
          "type": "uint256"
        }
      ],
      "name": "approveRequest",
      "outputs": [],
      "stateMutability": "nonpayable",
      "type": "function"
    },
    {
      "inputs": [
        {
          "internalType": "uint256",
          "name": "propertyId",
          "type": "uint256"
        },
        {
          "internalType": "uint256",
          "name": "updateIndex",
          "type": "uint256"
        }
      ],
      "name": "approveUpdateRequest",
      "outputs": [],
      "stateMutability": "nonpayable",
      "type": "function"
    },
    {
      "inputs": [
        {
          "internalType": "address",
          "name": "owner",
          "type": "address"
        }
      ],
      "name": "balanceOf",
      "outputs": [
        {
          "internalType": "uint256",
          "name": "",
          "type": "uint256"
        }
      ],
      "stateMutability": "view",
      "type": "function"
    },
    {
      "inputs": [
        {
          "internalType": "uint256",
          "name": "propertyId",
          "type": "uint256"
        }
      ],
      "name": "buyProperty",
      "outputs": [],
      "stateMutability": "payable",
      "type": "function"
    },
    {
      "inputs": [],
      "name": "commissionPercent",
      "outputs": [
        {
          "internalType": "uint256",
          "name": "",
          "type": "uint256"
        }
      ],
      "stateMutability": "view",
      "type": "function"
    },
    {
      "inputs": [
        {
          "internalType": "uint256",
          "name": "requestId",
          "type": "uint256"
        },
        {
          "internalType": "string",
          "name": "reason",
          "type": "string"
        }
      ],
      "name": "declineRequest",
      "outputs": [],
      "stateMutability": "nonpayable",
      "type": "function"
    },
    {
      "inputs": [
        {
          "internalType": "uint256",
          "name": "propertyId",
          "type": "uint256"
        },
        {
          "internalType": "uint256",
          "name": "updateIndex",
          "type": "uint256"
        },
        {
          "internalType": "string",
          "name": "reason",
          "type": "string"
        }
      ],
      "name": "declineUpdateRequest",
      "outputs": [],
      "stateMutability": "nonpayable",
      "type": "function"
    },
    {
      "inputs": [
        {
          "internalType": "uint256",
          "name": "tokenId",
          "type": "uint256"
        }
      ],
      "name": "getApproved",
      "outputs": [
        {
          "internalType": "address",
          "name": "",
          "type": "address"
        }
      ],
      "stateMutability": "view",
      "type": "function"
    },
    {
      "inputs": [
        {
          "internalType": "uint256",
          "name": "propertyId",
          "type": "uint256"
        }
      ],
      "name": "getLatestHashes",
      "outputs": [
        {
          "internalType": "bytes32",
          "name": "metadataHash",
          "type": "bytes32"
        },
        {
          "internalType": "bytes32",
          "name": "imagesRootHash",
          "type": "bytes32"
        },
        {
          "internalType": "bytes32",
          "name": "documentsRootHash",
          "type": "bytes32"
        }
      ],
      "stateMutability": "view",
      "type": "function"
    },
    {
      "inputs": [
        {
          "internalType": "uint256",
          "name": "propertyId",
          "type": "uint256"
        }
      ],
      "name": "getMetadataVersions",
      "outputs": [
        {
          "components": [
            {
              "internalType": "bytes32",
              "name": "metadataHash",
              "type": "bytes32"
            },
            {
              "internalType": "bytes32",
              "name": "imagesRootHash",
              "type": "bytes32"
            },
            {
              "internalType": "bytes32",
              "name": "documentsRootHash",
              "type": "bytes32"
            },
            {
              "internalType": "uint256",
              "name": "timestamp",
              "type": "uint256"
            },
            {
              "internalType": "uint256",
              "name": "versionNo",
              "type": "uint256"
            }
          ],
          "internalType": "struct RealEstate.MetadataVersion[]",
          "name": "",
          "type": "tuple[]"
        }
      ],
      "stateMutability": "view",
      "type": "function"
    },
    {
      "inputs": [
        {
          "internalType": "uint256",
          "name": "propertyId",
          "type": "uint256"
        }
      ],
      "name": "getOwnershipHistory",
      "outputs": [
        {
          "components": [
            {
              "internalType": "address",
              "name": "from",
              "type": "address"
            },
            {
              "internalType": "address",
              "name": "to",
              "type": "address"
            },
            {
              "internalType": "uint256",
              "name": "price",
              "type": "uint256"
            },
            {
              "internalType": "uint256",
              "name": "timestamp",
              "type": "uint256"
            }
          ],
          "internalType": "struct RealEstate.OwnershipRecord[]",
          "name": "",
          "type": "tuple[]"
        }
      ],
      "stateMutability": "view",
      "type": "function"
    },
    {
      "inputs": [
        {
          "internalType": "bytes32",
          "name": "role",
          "type": "bytes32"
        }
      ],
      "name": "getRoleAdmin",
      "outputs": [
        {
          "internalType": "bytes32",
          "name": "",
          "type": "bytes32"
        }
      ],
      "stateMutability": "view",
      "type": "function"
    },
    {
      "inputs": [],
      "name": "getTotalProperties",
      "outputs": [
        {
          "internalType": "uint256",
          "name": "",
          "type": "uint256"
        }
      ],
      "stateMutability": "view",
      "type": "function"
    },
    {
      "inputs": [],
      "name": "getTotalRequests",
      "outputs": [
        {
          "internalType": "uint256",
          "name": "",
          "type": "uint256"
        }
      ],
      "stateMutability": "view",
      "type": "function"
    },
    {
      "inputs": [
        {
          "internalType": "uint256",
          "name": "propertyId",
          "type": "uint256"
        }
      ],
      "name": "getUpdateRequests",
      "outputs": [
        {
          "components": [
            {
              "internalType": "uint256",
              "name": "id",
              "type": "uint256"
            },
            {
              "internalType": "uint256",
              "name": "propertyId",
              "type": "uint256"
            },
            {
              "internalType": "address",
              "name": "requester",
              "type": "address"
            },
            {
              "internalType": "bytes32",
              "name": "newMetadataHash",
              "type": "bytes32"
            },
            {
              "internalType": "bytes32",
              "name": "newImagesRootHash",
              "type": "bytes32"
            },
            {
              "internalType": "bytes32",
              "name": "newDocumentsRootHash",
              "type": "bytes32"
            },
            {
              "internalType": "enum RealEstate.UpdateStatus",
              "name": "status",
              "type": "uint8"
            },
            {
              "internalType": "string",
              "name": "declineReason",
              "type": "string"
            },
            {
              "internalType": "uint256",
              "name": "timestamp",
              "type": "uint256"
            }
          ],
          "internalType": "struct RealEstate.UpdateRequest[]",
          "name": "",
          "type": "tuple[]"
        }
      ],
      "stateMutability": "view",
      "type": "function"
    },
    {
      "inputs": [],
      "name": "governmentWallet",
      "outputs": [
        {
          "internalType": "address",
          "name": "",
          "type": "address"
        }
      ],
      "stateMutability": "view",
      "type": "function"
    },
    {
      "inputs": [
        {
          "internalType": "bytes32",
          "name": "role",
          "type": "bytes32"
        },
        {
          "internalType": "address",
          "name": "account",
          "type": "address"
        }
      ],
      "name": "grantRole",
      "outputs": [],
      "stateMutability": "nonpayable",
      "type": "function"
    },
    {
      "inputs": [
        {
          "internalType": "bytes32",
          "name": "role",
          "type": "bytes32"
        },
        {
          "internalType": "address",
          "name": "account",
          "type": "address"
        }
      ],
      "name": "hasRole",
      "outputs": [
        {
          "internalType": "bool",
          "name": "",
          "type": "bool"
        }
      ],
      "stateMutability": "view",
      "type": "function"
    },
    {
      "inputs": [
        {
          "internalType": "address",
          "name": "account",
          "type": "address"
        }
      ],
      "name": "isAdmin",
      "outputs": [
        {
          "internalType": "bool",
          "name": "",
          "type": "bool"
        }
      ],
      "stateMutability": "view",
      "type": "function"
    },
    {
      "inputs": [
        {
          "internalType": "address",
          "name": "owner",
          "type": "address"
        },
        {
          "internalType": "address",
          "name": "operator",
          "type": "address"
        }
      ],
      "name": "isApprovedForAll",
      "outputs": [
        {
          "internalType": "bool",
          "name": "",
          "type": "bool"
        }
      ],
      "stateMutability": "view",
      "type": "function"
    },
    {
      "inputs": [
        {
          "internalType": "uint256",
          "name": "propertyId",
          "type": "uint256"
        },
        {
          "internalType": "uint256",
          "name": "priceInEther",
          "type": "uint256"
        }
      ],
      "name": "listProperty",
      "outputs": [],
      "stateMutability": "nonpayable",
      "type": "function"
    },
    {
      "inputs": [
        {
          "internalType": "uint256",
          "name": "",
          "type": "uint256"
        },
        {
          "internalType": "uint256",
          "name": "",
          "type": "uint256"
        }
      ],
      "name": "metadataVersions",
      "outputs": [
        {
          "internalType": "bytes32",
          "name": "metadataHash",
          "type": "bytes32"
        },
        {
          "internalType": "bytes32",
          "name": "imagesRootHash",
          "type": "bytes32"
        },
        {
          "internalType": "bytes32",
          "name": "documentsRootHash",
          "type": "bytes32"
        },
        {
          "internalType": "uint256",
          "name": "timestamp",
          "type": "uint256"
        },
        {
          "internalType": "uint256",
          "name": "versionNo",
          "type": "uint256"
        }
      ],
      "stateMutability": "view",
      "type": "function"
    },
    {
      "inputs": [],
      "name": "name",
      "outputs": [
        {
          "internalType": "string",
          "name": "",
          "type": "string"
        }
      ],
      "stateMutability": "view",
      "type": "function"
    },
    {
      "inputs": [
        {
          "internalType": "uint256",
          "name": "tokenId",
          "type": "uint256"
        }
      ],
      "name": "ownerOf",
      "outputs": [
        {
          "internalType": "address",
          "name": "",
          "type": "address"
        }
      ],
      "stateMutability": "view",
      "type": "function"
    },
    {
      "inputs": [
        {
          "internalType": "uint256",
          "name": "",
          "type": "uint256"
        },
        {
          "internalType": "uint256",
          "name": "",
          "type": "uint256"
        }
      ],
      "name": "ownershipHistory",
      "outputs": [
        {
          "internalType": "address",
          "name": "from",
          "type": "address"
        },
        {
          "internalType": "address",
          "name": "to",
          "type": "address"
        },
        {
          "internalType": "uint256",
          "name": "price",
          "type": "uint256"
        },
        {
          "internalType": "uint256",
          "name": "timestamp",
          "type": "uint256"
        }
      ],
      "stateMutability": "view",
      "type": "function"
    },
    {
      "inputs": [],
      "name": "platformRestricted",
      "outputs": [
        {
          "internalType": "bool",
          "name": "",
          "type": "bool"
        }
      ],
      "stateMutability": "view",
      "type": "function"
    },
    {
      "inputs": [
        {
          "internalType": "address",
          "name": "from",
          "type": "address"
        },
        {
          "internalType": "address",
          "name": "to",
          "type": "address"
        },
        {
          "internalType": "uint256",
          "name": "tokenId",
          "type": "uint256"
        }
      ],
      "name": "platformTransfer",
      "outputs": [],
      "stateMutability": "nonpayable",
      "type": "function"
    },
    {
      "inputs": [
        {
          "internalType": "uint256",
          "name": "",
          "type": "uint256"
        }
      ],
      "name": "properties",
      "outputs": [
        {
          "internalType": "uint256",
          "name": "id",
          "type": "uint256"
        },
        {
          "internalType": "address",
          "name": "owner",
          "type": "address"
        },
        {
          "components": [
            {
              "internalType": "string",
              "name": "name",
              "type": "string"
            },
            {
              "internalType": "string",
              "name": "location",
              "type": "string"
            },
            {
              "internalType": "string",
              "name": "propertyType",
              "type": "string"
            },
            {
              "internalType": "uint256",
              "name": "price",
              "type": "uint256"
            },
            {
              "internalType": "bool",
              "name": "isForSale",
              "type": "bool"
            },
            {
              "internalType": "bytes32",
              "name": "metadataHash",
              "type": "bytes32"
            },
            {
              "internalType": "bytes32",
              "name": "imagesRootHash",
              "type": "bytes32"
            },
            {
              "internalType": "bytes32",
              "name": "documentsRootHash",
              "type": "bytes32"
            },
            {
              "internalType": "uint256",
              "name": "bedrooms",
              "type": "uint256"
            },
            {
              "internalType": "uint256",
              "name": "bathrooms",
              "type": "uint256"
            },
            {
              "internalType": "uint256",
              "name": "sqft",
              "type": "uint256"
            },
            {
              "internalType": "uint256",
              "name": "parking",
              "type": "uint256"
            },
            {
              "internalType": "uint256",
              "name": "floors",
              "type": "uint256"
            },
            {
              "internalType": "uint256",
              "name": "yearBuilt",
              "type": "uint256"
            }
          ],
          "internalType": "struct RealEstate.PropertyDetails",
          "name": "details",
          "type": "tuple"
        }
      ],
      "stateMutability": "view",
      "type": "function"
    },
    {
      "inputs": [],
      "name": "registrationFee",
      "outputs": [
        {
          "internalType": "uint256",
          "name": "",
          "type": "uint256"
        }
      ],
      "stateMutability": "view",
      "type": "function"
    },
    {
      "inputs": [
        {
          "internalType": "bytes32",
          "name": "role",
          "type": "bytes32"
        },
        {
          "internalType": "address",
          "name": "callerConfirmation",
          "type": "address"
        }
      ],
      "name": "renounceRole",
      "outputs": [],
      "stateMutability": "nonpayable",
      "type": "function"
    },
    {
      "inputs": [
        {
          "internalType": "uint256",
          "name": "",
          "type": "uint256"
        }
      ],
      "name": "requests",
      "outputs": [
        {
          "internalType": "uint256",
          "name": "id",
          "type": "uint256"
        },
        {
          "internalType": "address",
          "name": "requester",
          "type": "address"
        },
        {
          "components": [
            {
              "internalType": "string",
              "name": "name",
              "type": "string"
            },
            {
              "internalType": "string",
              "name": "location",
              "type": "string"
            },
            {
              "internalType": "string",
              "name": "propertyType",
              "type": "string"
            },
            {
              "internalType": "uint256",
              "name": "price",
              "type": "uint256"
            },
            {
              "internalType": "bool",
              "name": "isForSale",
              "type": "bool"
            },
            {
              "internalType": "bytes32",
              "name": "metadataHash",
              "type": "bytes32"
            },
            {
              "internalType": "bytes32",
              "name": "imagesRootHash",
              "type": "bytes32"
            },
            {
              "internalType": "bytes32",
              "name": "documentsRootHash",
              "type": "bytes32"
            },
            {
              "internalType": "uint256",
              "name": "bedrooms",
              "type": "uint256"
            },
            {
              "internalType": "uint256",
              "name": "bathrooms",
              "type": "uint256"
            },
            {
              "internalType": "uint256",
              "name": "sqft",
              "type": "uint256"
            },
            {
              "internalType": "uint256",
              "name": "parking",
              "type": "uint256"
            },
            {
              "internalType": "uint256",
              "name": "floors",
              "type": "uint256"
            },
            {
              "internalType": "uint256",
              "name": "yearBuilt",
              "type": "uint256"
            }
          ],
          "internalType": "struct RealEstate.PropertyDetails",
          "name": "details",
          "type": "tuple"
        },
        {
          "internalType": "enum RealEstate.RequestStatus",
          "name": "status",
          "type": "uint8"
        },
        {
          "internalType": "string",
          "name": "declineReason",
          "type": "string"
        }
      ],
      "stateMutability": "view",
      "type": "function"
    },
    {
      "inputs": [
        {
          "internalType": "bytes32",
          "name": "role",
          "type": "bytes32"
        },
        {
          "internalType": "address",
          "name": "account",
          "type": "address"
        }
      ],
      "name": "revokeRole",
      "outputs": [],
      "stateMutability": "nonpayable",
      "type": "function"
    },
    {
      "inputs": [
        {
          "internalType": "address",
          "name": "from",
          "type": "address"
        },
        {
          "internalType": "address",
          "name": "to",
          "type": "address"
        },
        {
          "internalType": "uint256",
          "name": "tokenId",
          "type": "uint256"
        }
      ],
      "name": "safeTransferFrom",
      "outputs": [],
      "stateMutability": "nonpayable",
      "type": "function"
    },
    {
      "inputs": [
        {
          "internalType": "address",
          "name": "from",
          "type": "address"
        },
        {
          "internalType": "address",
          "name": "to",
          "type": "address"
        },
        {
          "internalType": "uint256",
          "name": "tokenId",
          "type": "uint256"
        },
        {
          "internalType": "bytes",
          "name": "data",
          "type": "bytes"
        }
      ],
      "name": "safeTransferFrom",
      "outputs": [],
      "stateMutability": "nonpayable",
      "type": "function"
    },
    {
      "inputs": [
        {
          "internalType": "address",
          "name": "operator",
          "type": "address"
        },
        {
          "internalType": "bool",
          "name": "approved",
          "type": "bool"
        }
      ],
      "name": "setApprovalForAll",
      "outputs": [],
      "stateMutability": "nonpayable",
      "type": "function"
    },
    {
      "inputs": [
        {
          "internalType": "uint256",
          "name": "percent",
          "type": "uint256"
        }
      ],
      "name": "setCommission",
      "outputs": [],
      "stateMutability": "nonpayable",
      "type": "function"
    },
    {
      "inputs": [
        {
          "internalType": "bool",
          "name": "restricted",
          "type": "bool"
        }
      ],
      "name": "setPlatformRestricted",
      "outputs": [],
      "stateMutability": "nonpayable",
      "type": "function"
    },
    {
      "inputs": [
        {
          "internalType": "uint256",
          "name": "feeInWei",
          "type": "uint256"
        }
      ],
      "name": "setRegistrationFee",
      "outputs": [],
      "stateMutability": "nonpayable",
      "type": "function"
    },
    {
      "inputs": [
        {
          "components": [
            {
              "internalType": "string",
              "name": "name",
              "type": "string"
            },
            {
              "internalType": "string",
              "name": "location",
              "type": "string"
            },
            {
              "internalType": "string",
              "name": "propertyType",
              "type": "string"
            },
            {
              "internalType": "uint256",
              "name": "price",
              "type": "uint256"
            },
            {
              "internalType": "bool",
              "name": "isForSale",
              "type": "bool"
            },
            {
              "internalType": "bytes32",
              "name": "metadataHash",
              "type": "bytes32"
            },
            {
              "internalType": "bytes32",
              "name": "imagesRootHash",
              "type": "bytes32"
            },
            {
              "internalType": "bytes32",
              "name": "documentsRootHash",
              "type": "bytes32"
            },
            {
              "internalType": "uint256",
              "name": "bedrooms",
              "type": "uint256"
            },
            {
              "internalType": "uint256",
              "name": "bathrooms",
              "type": "uint256"
            },
            {
              "internalType": "uint256",
              "name": "sqft",
              "type": "uint256"
            },
            {
              "internalType": "uint256",
              "name": "parking",
              "type": "uint256"
            },
            {
              "internalType": "uint256",
              "name": "floors",
              "type": "uint256"
            },
            {
              "internalType": "uint256",
              "name": "yearBuilt",
              "type": "uint256"
            }
          ],
          "internalType": "struct RealEstate.PropertyDetails",
          "name": "details",
          "type": "tuple"
        }
      ],
      "name": "submitRequest",
      "outputs": [],
      "stateMutability": "payable",
      "type": "function"
    },
    {
      "inputs": [
        {
          "internalType": "uint256",
          "name": "propertyId",
          "type": "uint256"
        },
        {
          "internalType": "bytes32",
          "name": "newMetadataHash",
          "type": "bytes32"
        },
        {
          "internalType": "bytes32",
          "name": "newImagesRootHash",
          "type": "bytes32"
        },
        {
          "internalType": "bytes32",
          "name": "newDocumentsRootHash",
          "type": "bytes32"
        }
      ],
      "name": "submitUpdateRequest",
      "outputs": [],
      "stateMutability": "nonpayable",
      "type": "function"
    },
    {
      "inputs": [
        {
          "internalType": "bytes4",
          "name": "interfaceId",
          "type": "bytes4"
        }
      ],
      "name": "supportsInterface",
      "outputs": [
        {
          "internalType": "bool",
          "name": "",
          "type": "bool"
        }
      ],
      "stateMutability": "view",
      "type": "function"
    },
    {
      "inputs": [],
      "name": "symbol",
      "outputs": [
        {
          "internalType": "string",
          "name": "",
          "type": "string"
        }
      ],
      "stateMutability": "view",
      "type": "function"
    },
    {
      "inputs": [
        {
          "internalType": "uint256",
          "name": "tokenId",
          "type": "uint256"
        }
      ],
      "name": "tokenURI",
      "outputs": [
        {
          "internalType": "string",
          "name": "",
          "type": "string"
        }
      ],
      "stateMutability": "view",
      "type": "function"
    },
    {
      "inputs": [
        {
          "internalType": "address",
          "name": "from",
          "type": "address"
        },
        {
          "internalType": "address",
          "name": "to",
          "type": "address"
        },
        {
          "internalType": "uint256",
          "name": "tokenId",
          "type": "uint256"
        }
      ],
      "name": "transferFrom",
      "outputs": [],
      "stateMutability": "nonpayable",
      "type": "function"
    },
    {
      "inputs": [
        {
          "internalType": "uint256",
          "name": "",
          "type": "uint256"
        },
        {
          "internalType": "uint256",
          "name": "",
          "type": "uint256"
        }
      ],
      "name": "updateRequests",
      "outputs": [
        {
          "internalType": "uint256",
          "name": "id",
          "type": "uint256"
        },
        {
          "internalType": "uint256",
          "name": "propertyId",
          "type": "uint256"
        },
        {
          "internalType": "address",
          "name": "requester",
          "type": "address"
        },
        {
          "internalType": "bytes32",
          "name": "newMetadataHash",
          "type": "bytes32"
        },
        {
          "internalType": "bytes32",
          "name": "newImagesRootHash",
          "type": "bytes32"
        },
        {
          "internalType": "bytes32",
          "name": "newDocumentsRootHash",
          "type": "bytes32"
        },
        {
          "internalType": "enum RealEstate.UpdateStatus",
          "name": "status",
          "type": "uint8"
        },
        {
          "internalType": "string",
          "name": "declineReason",
          "type": "string"
        },
        {
          "internalType": "uint256",
          "name": "timestamp",
          "type": "uint256"
        }
      ],
      "stateMutability": "view",
      "type": "function"
    }
  ],
  "bytecode": "0x60806040523461037457613f126020813803918261001c81610378565b93849283398101031261037457516001600160a01b03811690819003610374576100466040610378565b90600d82526c1499585b115cdd185d19539195609a1b602083015261006b6040610378565b6005815264149153919560da1b602082015282519091906001600160401b038111610288575f54600181811c9116801561036a575b602082101461026a57601f8111610308575b506020601f82116001146102a757819293945f9261029c575b50508160011b915f199060031b1c1916175f555b81516001600160401b03811161028857600154600181811c9116801561027e575b602082101461026a57601f8111610207575b50602092601f82116001146101a657928192935f9261019b575b50508160011b915f199060031b1c1916176001555b6002600a5566f8b0a10e470000600b55600c805460ff60a01b1916600160a01b17905561016d3361039d565b5061017733610413565b50600c80546001600160a01b031916919091179055604051613a0b90816104a78239f35b015190505f8061012c565b601f1982169360015f52805f20915f5b8681106101ef57508360019596106101d7575b505050811b01600155610141565b01515f1960f88460031b161c191690555f80806101c9565b919260206001819286850151815501940192016101b6565b60015f527fb10e2d527612073b26eecdfd717e6a320cf44b4afac2b0732d9fcbe2b7fa0cf6601f830160051c81019160208410610260575b601f0160051c01905b8181106102555750610112565b5f8155600101610248565b909150819061023f565b634e487b7160e01b5f52602260045260245ffd5b90607f1690610100565b634e487b7160e01b5f52604160045260245ffd5b015190505f806100cb565b601f198216905f8052805f20915f5b8181106102f0575095836001959697106102d8575b505050811b015f556100df565b01515f1960f88460031b161c191690555f80806102cb565b9192602060018192868b0151815501940192016102b6565b5f80527f290decd9548b62a8d60345a988386fc84ba6bc95484008f6362f93160ef3e563601f830160051c81019160208410610360575b601f0160051c01905b81811061035557506100b2565b5f8155600101610348565b909150819061033f565b90607f16906100a0565b5f80fd5b6040519190601f01601f191682016001600160401b0381118382101761028857604052565b6001600160a01b0381165f9081525f516020613ef25f395f51905f52602052604090205460ff1661040e576001600160a01b03165f8181525f516020613ef25f395f51905f5260205260408120805460ff191660011790553391905f516020613eb25f395f51905f528180a4600190565b505f90565b6001600160a01b0381165f9081525f516020613ed25f395f51905f52602052604090205460ff1661040e576001600160a01b03165f8181525f516020613ed25f395f51905f5260205260408120805460ff191660011790553391907fa49807205ce4d355092ef5a8a18f56e8913cf4a201fbe287825b095693c21775905f516020613eb25f395f51905f529080a460019056fe6080806040526004361015610012575f80fd5b5f905f3560e01c90816301ffc9a714612b285750806306fdde0314612a61578063081812fc14612a25578063095ea7b31461293b5780630ca93d5c1461286e57806314c44e091461285157806317aaf5ed146128345780632197d8f0146127ef57806323b872dd146127d8578063248a9ca3146127b257806324a1f737146126a657806324d7806c146126585780632f2ff15d14612627578063355e6b43146125c3578063364f064b1461257f57806336568abe1461253b5780633b46ff46146122f15780633f9df7591461213f57806342842e0e1461210e5780634ad49880146119895780634eda529b146118a25780636352211e146118725780636766ce76146117625780636fa830a6146114d357806370480275146114a957806370a082311461145657806375b238fc1461142e57806377d3550b1461141057806381d12c581461137d5780638c758245146113155780638e0c0630146112ef57806391d14854146112a557806395d89b41146111d65780639dce522e14611040578063a217fddf14611024578063a22cb46514610f6b578063a4a348e714610f42578063a5a7026514610d85578063b88d4fde14610d11578063c320c72714610cee578063c38eaaa614610c2a578063c87b56dd14610bd3578063c9cf2adc14610b66578063d547741f14610b2b578063d7d1bbdb1461042a578063e985e9c5146103d2578063f0e22d52146103b4578063f1dbaccb1461029e5763f7b1080814610239575f80fd5b3461029b57602036600319011261029b576004358152600d60205260409020805460018201546001600160a01b0316916102979061027990600201612e43565b60405193849384526020840152606060408401526060830190612ef9565b0390f35b80fd5b503461029b57602036600319011261029b576004358152600f6020526040812080546102c9816131f4565b906102d76040519283612cc3565b80825260208201809385526020852085915b83831061036557868587604051928392602084019060208552518091526040840192915b81811061031b575050500390f35b825180516001600160a01b0390811686526020828101519091168187015260408083015190870152606091820151918601919091528695506080909401939092019160010161030d565b6004602060019260405161037881612ca8565b848060a01b038654168152848060a01b0385870154168382015260028601546040820152600386015460608201528152019201920191906102e9565b503461029b578060031936011261029b576020600854604051908152f35b503461029b57604036600319011261029b5760406103ee612bd1565b916103f7612be7565b9260018060a01b031681526005602052209060018060a01b03165f52602052602060ff60405f2054166040519015158152f35b503461029b57602036600319011261029b5760043561044761346e565b808252600e60205260408220601081016001815461047160ff821661046b81612c37565b156133a6565b60ff191617905560075461048481613255565b60075560018201805460405160209492916001600160a01b0316906104a98682612cc3565b8781528115610b17576001600160a01b036104c486846134f1565b16610b0357813b6109e2575b50508054604051906001600160a01b0316606082016001600160401b038111838210176109ce5760405284825285820190815261050f60028501612e43565b6040838101918252868a52600d885289209251835590516001830180546001600160a01b0319166001600160a01b0392909216919091179055518051805160028401916001600160401b03821161084457819061056c8454612d6b565b601f8111610980575b508990601f831160011461091e578c92610913575b50508160011b915f199060031b1c19161790555b80860151805160038401916001600160401b0382116108445781906105c38454612d6b565b601f81116108c5575b508990601f8311600114610863578c92610858575b50508160011b915f199060031b1c19161790555b6040810151805160048401916001600160401b038211610844576106198354612d6b565b601f8111610801575b5088908b601f841160011461077e57946107699794845f5160206139b65f395f51905f529c9b9a9895600f956101a0956107239a92610773575b50508160011b915f199060031b1c19161790555b6060810151600585015561068d608082015115156006860161327b565b60a0810151600785015560c0810151600885015560e08101516009850155610100810151600a850155610120810151600b850155610140810151600c850155610160810151600d850155610180810151600e8501550151910155848952600f86526040808a209154905191906001600160a01b031661070b83612ca8565b8a83528783015289604083015242606083015261333a565b828752601084526040872060078201549160096008820154910154906040519361074c85612c55565b8452868401526040830152426060830152600160808301526132c6565b604051908152a280f35b015190505f8061065c565b50838c52898c209190601f1984168d5b8181106107ea575094600185600f956101a0955f5160206139b65f395f51905f529f9e9d9b98956107239b966107699e9b106107d2575b505050811b019055610670565b01515f1960f88460031b161c191690555f80806107c5565b92938c60018192878601518155019501930161078e565b838c52898c20601f840160051c8101918b851061083a575b601f0160051c01905b81811061082f5750610622565b8c8155600101610822565b9091508190610819565b634e487b7160e01b8b52604160045260248bfd5b015190505f806105e1565b848d528a8d209250601f1984168d5b8c8282106108af575050908460019594939210610897575b505050811b0190556105f5565b01515f1960f88460031b161c191690555f808061088a565b6001859682939686015181550195019301610872565b909150838c52898c20601f840160051c8101918b8510610909575b90601f859493920160051c01905b8181106108fb57506105cc565b8d81558493506001016108ee565b90915081906108e0565b015190505f8061058a565b848d528a8d209250601f1984168d5b8c82821061096a575050908460019594939210610952575b505050811b01905561059e565b01515f1960f88460031b161c191690555f8080610945565b600185968293968601518155019501930161092d565b909150838c52898c20601f840160051c8101918b85106109c4575b90601f859493920160051c01905b8181106109b65750610575565b8d81558493506001016109a9565b909150819061099b565b634e487b7160e01b5f52604160045260245ffd5b85610a2391604099979896959493995180938192630a85bd0160e11b83523360048401525f6024840152886044840152608060648401526084830190612bad565b03815f8c5af15f9181610abf575b50610a865787873d15610a7e573d90610a4982612ce6565b91610a576040519384612cc3565b82523d5f8284013e5b81519182610a7b5783633250574960e11b5f5260045260245ffd5b01fd5b606090610a60565b630a85bd0160e198929394959796981b9063ffffffff60e01b1603610aad57505f806104d0565b633250574960e11b5f5260045260245ffd5b9091508781813d8311610afc575b610ad78183612cc3565b81010312610af857516001600160e01b031981168103610af857905f610a31565b5f80fd5b503d610acd565b6339e3563760e11b88526004889052602488fd5b633250574960e11b88526004889052602488fd5b503461029b57604036600319011261029b57610b62600435610b4b612be7565b90610b5d610b58826131e2565b6134b7565b613710565b5080f35b503461029b57610b7536612d55565b91908152600f6020526040812090815483101561029b576080610b988484612ffc565b50805460018201546002830154600390930154604080516001600160a01b039485168152929093166020830152918101929092526060820152f35b503461029b57602036600319011261029b57610bf06004356133eb565b5080604051610c00602082612cc3565b5250610297604051610c13602082612cc3565b5f8152604051918291602083526020830190612bad565b503461029b57610c3936612d55565b9082526011602052604082208054821015610cea57610c589250612fe3565b508054600182015491610cdf60018060a01b03600283015416916003810154600482015460058301549060ff600685015416926008610c9960078701612da3565b95015496604051998a998a5260208a015260408901526060880152608087015260a0860152610cc781612c37565b60c085015261012060e0850152610120840190612bad565b906101008301520390f35b8280fd5b503461029b57602036600319011261029b57610d0861341f565b600435600b5580f35b503461029b57608036600319011261029b57610d2b612bd1565b610d33612be7565b6064359190604435906001600160401b038411610d815736602385011215610d8157610d6c610d7e943690602481600401359101612d01565b92610d78838383613015565b33613794565b80f35b8480fd5b503461029b57604036600319011261029b576004356024356001600160401b038111610cea57610db9903690600401612d37565b610dc161346e565b818352600e6020526011604084206010810160028154610de760ff821661046b81612c37565b60ff191617905582519101906001600160401b038111610f2e57610e0b8254612d6b565b601f8111610ee9575b506020601f8211600114610e775791815f5160206139165f395f51905f529492610e66948891610e6c575b508160011b915f199060031b1c19161790555b604051918291602083526020830190612bad565b0390a280f35b90508301515f610e3f565b82865280862090601f198316875b818110610ed1575092610e669492600192825f5160206139165f395f51905f52989610610eb9575b5050811b019055610e52565b8501515f1960f88460031b161c191690555f80610ead565b9192602060018192868a015181550194019201610e85565b82865260208620601f830160051c81019160208410610f24575b601f0160051c01905b818110610f195750610e14565b868155600101610f0c565b9091508190610f03565b634e487b7160e01b85526041600452602485fd5b503461029b578060031936011261029b57600c546040516001600160a01b039091168152602090f35b503461029b57604036600319011261029b57610f85612bd1565b602435908115159081830361102057331561100c576001600160a01b0316918215610ff857610fc990338552600560205260408520845f5260205260405f2061327b565b6040519081527f17307eab39ab6107e8899845ad3d59bd9653f200f220920489ca2b5937696c3160203392a380f35b630b61174360e31b84526004839052602484fd5b63a9fbf51f60e01b84526004849052602484fd5b8380fd5b503461029b578060031936011261029b57602090604051908152f35b503461029b57606036600319011261029b576044356001600160401b0381116111d257611071903690600401612d37565b9061107a61346e565b60043581526011602052600761109560243560408420612fe3565b5060068101600281546110b460ff82166110ae81612c37565b1561328c565b60ff191617905583519101906001600160401b0381116111be576110d88254612d6b565b601f8111611179575b506020601f821160011461111b57839482939492611110575b50508160011b915f199060031b1c191617905580f35b015190505f806110fa565b82845280842090601f198316855b81811061116157509583600195969710611149575b505050811b01905580f35b01515f1960f88460031b161c191690555f808061113e565b9192602060018192868b015181550194019201611129565b82845260208420601f830160051c810191602084106111b4575b601f0160051c01905b8181106111a957506110e1565b84815560010161119c565b9091508190611193565b634e487b7160e01b83526041600452602483fd5b5080fd5b503461029b578060031936011261029b576040519080600154906111f982612d6b565b808552916001811690811561127e5750600114611221575b61029784610e5281860382612cc3565b600181527fb10e2d527612073b26eecdfd717e6a320cf44b4afac2b0732d9fcbe2b7fa0cf6939250905b80821061126457509091508101602001610e5282611211565b91926001816020925483858801015201910190929161124b565b60ff191660208087019190915292151560051b85019092019250610e529150839050611211565b503461029b57604036600319011261029b5760406112c1612be7565b9160043581526006602052209060018060a01b03165f52602052602060ff60405f2054166040519015158152f35b503461029b578060031936011261029b57602060ff600c5460a01c166040519015158152f35b503461029b5761132436612d55565b9190815260106020526040812090815483101561029b5760a06113478484612fb6565b50805490600181015490600281015460046003830154920154926040519485526020850152604084015260608301526080820152f35b503461029b57602036600319011261029b576004358152600e60205260409020805460018201546001600160a01b031691610297906113be60028201612e43565b6113f46113d5601160ff6010860154169401612da3565b916040519687968752602087015260a0604087015260a0860190612ef9565b916113fe81612c37565b60608501528382036080850152612bad565b503461029b578060031936011261029b576020600a54604051908152f35b503461029b578060031936011261029b5760206040515f5160206139965f395f51905f528152f35b503461029b57602036600319011261029b576001600160a01b03611478612bd1565b168015611495578160409160209352600383522054604051908152f35b6322718ad960e21b82526004829052602482fd5b503461029b57602036600319011261029b57610b626114c6612bd1565b6114ce61341f565b613612565b506020366003190112610af857600435805f52600d60205260405f206114f8826133eb565b600682019060ff82541615611722576001600160a01b0381163381146116dd576005840154341061169e57600a5480340290348204143415171561168a576064900480340334811161168a57303b15610af85760405163032a4f5760e21b81525f818061156a8b338a60048501613318565b038183305af1801561167f57611668575b5090878080808095878287341461165f575bf11561165257600c54829182918291906001600160a01b0316828215611649575bf11561163e577fddd64180d9701c7ede08673ac8106484ff983a472929330d4fbde4e35d65cb0693610e6693611612600193888a52600f60205260408a20604051916115f983612ca8565b825233602083015234604083015242606083015261333a565b805460ff191690550180546001600160a01b031916339081179091556040519283929091349184613318565b6040513d87823e3d90fd5b506108fc6115ae565b50604051903d90823e3d90fd5b506108fc61158d565b611676919298505f90612cc3565b5f96905f61157b565b6040513d5f823e3d90fd5b634e487b7160e01b5f52601160045260245ffd5b60405162461bcd60e51b8152602060048201526017602482015276125b9cdd59999a58da595b9d08199d5b991cc81cd95b9d604a1b6044820152606490fd5b60405162461bcd60e51b815260206004820152601d60248201527f596f7520616c7265616479206f776e20746869732070726f70657274790000006044820152606490fd5b60405162461bcd60e51b815260206004820152601860248201527750726f7065727479206973206e6f7420666f722073616c6560401b6044820152606490fd5b34610af85761178f61177336612d55565b61177e92919261346e565b825f52601160205260405f20612fe3565b5060068101600181546117a860ff82166110ae81612c37565b60ff1916179055815f52601060205260405f2054906001820180921161168a577f9032a8a0e1ddaa3ecac1b60708fe90ceb446eb9b8ff9dec3fdb96a5650ebd0e891604091845f526010602052825f2090600381019161183a835460048401926005845495019485549089519361181e85612c55565b84526020840152888301524260608301528660808301526132c6565b82545f888152600d602090815287822060070192909255915486832060080155915490859020600901559054835192835290820152a2005b34610af8576020366003190112610af85760206118906004356133eb565b6040516001600160a01b039091168152f35b34610af8576118b036612d55565b6118cc6118bc836133eb565b6001600160a01b0316331461320b565b801561194557815f52600d602052600660405f2001600160ff19825416179055670de0b6b3a76400008102908104670de0b6b3a76400000361168a5760207fd2acfbe1632c42ab1e36cabad615126d27fa805ef1e2efc7ceec17c60ffbaafd91835f52600d825280600560405f200155604051908152a2005b60405162461bcd60e51b815260206004820152601c60248201527b05072696365206d7573742062652067726561746572207468616e20360241b6044820152606490fd5b6020366003190112610af8576004356001600160401b038111610af8576101c06003198236030112610af8576040516119c181612c8c565b60048201356001600160401b038111610af8576119e49060043691850101612d37565b815260248201356001600160401b038111610af857611a099060043691850101612d37565b602082015260448201356001600160401b038111610af857611a319060043691850101612d37565b60408201526060810191606481013583526084810135908115158203610af8576101a491608084015260a481013560a084015260c481013560c084015260e481013560e084015261010481013561010084015261012481013561012084015261014481013561014084015261016481013561016084015261018481013561018084015201356101a0820152600b5434106120c95760085491611ad283613255565b600855600c546001600160a01b0316806120a3575b50805190670de0b6b3a7640000820291808304670de0b6b3a7640000149015171561168a575260405190611b1a82612c55565b828252602082013381526040830192828452606081015f815260209460405193611b448786612cc3565b5f80865260808501958652888152600e88526040902093518455516001840180546001600160a01b0319166001600160a01b0392909216919091179055518051805160028501916001600160401b0382116109ce578190611ba58454612d6b565b601f8111612055575b508990601f8311600114611ff2575f92611fe7575b50508160011b915f199060031b1c19161790555b80860151805160038501916001600160401b0382116109ce578190611bfc8454612d6b565b601f8111611f99575b508990601f8311600114611f36575f92611f2b575b50508160011b915f199060031b1c19161790555b6040810151805160048501916001600160401b0382116109ce57611c528354612d6b565b601f8111611ee8575b508890601f8311600114611e795792826101a093611d20969360119998965f92611e6e575b50508160011b915f199060031b1c19161790555b60608101516005860155611cb1608082015115156006870161327b565b60a0810151600786015560c0810151600886015560e08101516009860155610100810151600a860155610120810151600b860155610140810151600c860155610160810151600d860155610180810151600e8601550151600f84015551611d1781612c37565b60108301613263565b9151805191909201916001600160401b0382116109ce57611d418354612d6b565b601f8111611e2b575b508490601f8311600114611db3579282611da393604096935f5160206138f65f395f51905f5298965f92611da8575b50508160011b915f199060031b1c19161790555b5183519384933385528401526040830190612bad565b0390a2005b015190508980611d79565b90601f19831691845f52865f20925f5b818110611e14575093604096935f5160206138f65f395f51905f5298969360019383611da39810611dfc575b505050811b019055611d8d565b01515f1960f88460031b161c19169055898080611def565b929388600181928786015181550195019301611dc3565b835f52855f20601f840160051c810191878510611e64575b601f0160051c01905b818110611e595750611d4a565b5f8155600101611e4c565b9091508190611e43565b015190508d80611c80565b90601f19831691845f528a5f20925f5b8c828210611ed257505093611d209693601199989693600193836101a09810611eba575b505050811b019055611c94565b01515f1960f88460031b161c191690558d8080611ead565b6001859682939686015181550195019301611e89565b835f52895f20601f840160051c8101918b8510611f21575b601f0160051c01905b818110611f165750611c5b565b5f8155600101611f09565b9091508190611f00565b015190508a80611c1a565b5f8581528b81209350601f198516905b8c828210611f83575050908460019594939210611f6b575b505050811b019055611c2e565b01515f1960f88460031b161c191690558a8080611f5e565b6001859682939686015181550195019301611f46565b909150835f52895f20601f840160051c8101918b8510611fdd575b90601f859493920160051c01905b818110611fcf5750611c05565b5f8155849350600101611fc2565b9091508190611fb4565b015190508a80611bc3565b5f8581528b81209350601f198516905b8c82821061203f575050908460019594939210612027575b505050811b019055611bd7565b01515f1960f88460031b161c191690558a808061201a565b6001859682939686015181550195019301612002565b909150835f52895f20601f840160051c8101918b8510612099575b90601f859493920160051c01905b81811061208b5750611bae565b5f815584935060010161207e565b9091508190612070565b5f80808093819034156120bf575b3491f11561167f5783611ae7565b6108fc91506120b1565b60405162461bcd60e51b815260206004820152601d60248201527f496e73756666696369656e7420726567697374726174696f6e206665650000006044820152606490fd5b34610af85761213d61211f36612bfd565b906040519261212f602085612cc3565b5f8452610d78838383613015565b005b34610af8576020366003190112610af8576004355f52601160205260405f2080549061216a826131f4565b916121786040519384612cc3565b8083526020830180925f5260205f205f915b83831061226357848660405191829160208301906020845251809152604083019060408160051b85010192915f905b8282106121c857505050500390f35b919360019193955060208091603f19898203018552875190815181528282015183820152848060a01b036040830151166040820152606082015160608201526080820151608082015260a082015160a082015260c082015161222981612c37565b60c08201526101008061224d60e085015161012060e0860152610120850190612bad565b93015191015296019201920185949391926121b9565b6009602060019260405161227681612c70565b855481528486015483820152848060a01b0360028701541660408201526003860154606082015260048601546080820152600586015460a082015260ff6006870154166122c281612c37565b60c08201526122d360078701612da3565b60e0820152600886015461010082015281520192019201919061218a565b34610af8576080366003190112610af8576004356123116118bc826133eb565b6009549061231e82613255565b600955805f52601160205260405f206040519261233a84612c70565b835260208301918252604083013381526060840193602435855260808101604435815260a08201606435815260c08301915f83526020976040519561237f8a88612cc3565b5f875260e086019687526101008601974289528054600160401b8110156109ce576123af91600182018155612fe3565b99909961252857955189559451600189015593516002880180546001600160a01b0319166001600160a01b0392909216919091179055925160038701559151600486015590516005850155516124119061240881612c37565b60068501613263565b51805190936007840191906001600160401b0382116109ce576124348354612d6b565b601f81116124e5575b5080601f831160011461247d57508190600895965f92612472575b50508160011b915f199060031b1c19161790555b51910155005b015190508680612458565b90601f19831696845f52825f20925f905b8982106124cd5750509083929160019460089899106124b5575b505050811b01905561246c565b01515f1960f88460031b161c191690558680806124a8565b8060018596829496860151815501950193019061248e565b835f52815f20601f840160051c81019183851061251e575b601f0160051c01905b818110612513575061243d565b5f8155600101612506565b90915081906124fd565b634e487b7160e01b5f525f60045260245ffd5b34610af8576040366003190112610af857612554612be7565b336001600160a01b038216036125705761213d90600435613710565b63334bd91960e11b5f5260045ffd5b34610af8576020366003190112610af8576004355f52600d602052606060405f20600781015490600960088201549101549060405192835260208301526040820152f35b34610af8576020366003190112610af8576004356125df61341f565b600a81116125ec57600a55005b60405162461bcd60e51b8152602060048201526013602482015272086dedadad2e6e6d2dedc40e8dede40d0d2ced606b1b6044820152606490fd5b34610af8576040366003190112610af85761213d600435612646612be7565b90612653610b58826131e2565b613697565b34610af8576020366003190112610af857612671612bd1565b6001600160a01b03165f9081525f5160206139365f395f51905f52602090815260409182902054915160ff9092161515825290f35b34610af8576020366003190112610af8576004355f52601060205260405f208054906126d1826131f4565b916126df6040519384612cc3565b8083526020830180925f5260205f205f915b838310612767578486604051918291602083019060208452518091526040830191905f5b818110612723575050500390f35b91935091602060a060019260808751805183528481015185840152604081015160408401526060810151606084015201516080820152019401910191849392612715565b6005602060019260405161277a81612c55565b8554815284860154838201526002860154604082015260038601546060820152600486015460808201528152019201920191906126f1565b34610af8576020366003190112610af85760206127d06004356131e2565b604051908152f35b34610af85761213d6127e936612bfd565b91613015565b34610af8576020366003190112610af857600435801515809103610af85761281561341f565b600c805460ff60a01b191660a09290921b60ff60a01b16919091179055005b34610af8575f366003190112610af8576020600754604051908152f35b34610af8575f366003190112610af8576020600b54604051908152f35b34610af85761287c36612bfd565b903033036128fe576001600160a01b038116156128eb576001600160a01b03906128a79083906134f1565b1691826128c15750637e27328960e01b5f5260045260245ffd5b6001600160a01b03168083036128d357005b6364283d7b60e01b5f5260045260245260445260645ffd5b633250574960e11b5f525f60045260245ffd5b60405162461bcd60e51b815260206004820152601560248201527413db9b1e481c1b185d199bdc9b48185b1b1bddd959605a1b6044820152606490fd5b34610af8576040366003190112610af857612954612bd1565b602435612960816133eb565b33151580612a12575b806129e5575b6129d25781906001600160a01b0384811691167f8c5be1e5ebec7d5bd14f71427d1e84f3dd0314c0f7b2291e5b200ac8c7c3b9255f80a45f90815260046020526040902080546001600160a01b0319166001600160a01b03909216919091179055005b63a9fbf51f60e01b5f523360045260245ffd5b506001600160a01b0381165f90815260056020908152604080832033845290915290205460ff161561296f565b506001600160a01b038116331415612969565b34610af8576020366003190112610af857600435612a42816133eb565b505f526004602052602060018060a01b0360405f205416604051908152f35b34610af8575f366003190112610af8576040515f5f54612a8081612d6b565b8084529060018116908115612b045750600114612aa8575b61029783610e5281850382612cc3565b5f8080527f290decd9548b62a8d60345a988386fc84ba6bc95484008f6362f93160ef3e563939250905b808210612aea57509091508101602001610e52612a98565b919260018160209254838588010152019101909291612ad2565b60ff191660208086019190915291151560051b84019091019150610e529050612a98565b34610af8576020366003190112610af8576004359063ffffffff60e01b8216809203610af857602091637965db0b60e01b8114908115612b6a575b5015158152f35b6380ac58cd60e01b811491508115612b9c575b8115612b8b575b5083612b63565b6301ffc9a760e01b14905083612b84565b635b5e139f60e01b81149150612b7d565b805180835260209291819084018484015e5f828201840152601f01601f1916010190565b600435906001600160a01b0382168203610af857565b602435906001600160a01b0382168203610af857565b6060906003190112610af8576004356001600160a01b0381168103610af857906024356001600160a01b0381168103610af8579060443590565b60031115612c4157565b634e487b7160e01b5f52602160045260245ffd5b60a081019081106001600160401b038211176109ce57604052565b61012081019081106001600160401b038211176109ce57604052565b6101c081019081106001600160401b038211176109ce57604052565b608081019081106001600160401b038211176109ce57604052565b601f909101601f19168101906001600160401b038211908210176109ce57604052565b6001600160401b0381116109ce57601f01601f191660200190565b929192612d0d82612ce6565b91612d1b6040519384612cc3565b829481845281830111610af8578281602093845f960137010152565b9080601f83011215610af857816020612d5293359101612d01565b90565b6040906003190112610af8576004359060243590565b90600182811c92168015612d99575b6020831014612d8557565b634e487b7160e01b5f52602260045260245ffd5b91607f1691612d7a565b9060405191825f825492612db684612d6b565b8084529360018116908115612e215750600114612ddd575b50612ddb92500383612cc3565b565b90505f9291925260205f20905f915b818310612e05575050906020612ddb928201015f612dce565b6020919350806001915483858901015201910190918492612dec565b905060209250612ddb94915060ff191682840152151560051b8201015f612dce565b90604051612e5081612c8c565b6101a0600d8294612e6081612da3565b8452612e6e60018201612da3565b6020850152612e7f60028201612da3565b60408501526003810154606085015260ff60048201541615156080850152600581015460a0850152600681015460c0850152600781015460e085015260088101546101008501526009810154610120850152600a810154610140850152600b810154610160850152600c8101546101808501520154910152565b906101a080612f3d612f2b612f1986516101c087526101c0870190612bad565b60208701518682036020880152612bad565b60408601518582036040870152612bad565b936060810151606085015260808101511515608085015260a081015160a085015260c081015160c085015260e081015160e0850152610100810151610100850152610120810151610120850152610140810151610140850152610160810151610160850152610180810151610180850152015191015290565b8054821015612fcf575f52600560205f20910201905f90565b634e487b7160e01b5f52603260045260245ffd5b8054821015612fcf575f52600960205f20910201905f90565b8054821015612fcf575f5260205f209060021b01905f90565b6001600160a01b03909116919082156128eb575f828152600260205260409020546001600160a01b03161515806131d3575b613181575b5f828152600260205260409020546001600160a01b0316928290331515806130ec575b50846130cb575b805f52600360205260405f2060018154019055815f52600260205260405f208160018060a01b0319825416179055845f5160206139765f395f51905f525f80a46001600160a01b03168083036128d357505050565b6130d4826138b8565b845f52600360205260405f205f198154019055613076565b90915080613130575b156131025782905f61306f565b828461311a57637e27328960e01b5f5260045260245ffd5b63177e802f60e01b5f523360045260245260445ffd5b50338414801561315f575b806130f557505f838152600460205260409020546001600160a01b031633146130f5565b505f84815260056020908152604080832033845290915290205460ff1661313b565b33301461304c5760405162461bcd60e51b815260206004820152603060248201525f5160206139565f395f51905f5260448201526f6666696369616c20706c6174666f726d60801b6064820152608490fd5b5060ff600c5460a01c16613047565b5f526006602052600160405f20015490565b6001600160401b0381116109ce5760051b60200190565b1561321257565b60405162461bcd60e51b815260206004820152601b60248201527a596f7520646f6e2774206f776e20746869732070726f706572747960281b6044820152606490fd5b5f19811461168a5760010190565b9061326d81612c37565b60ff80198354169116179055565b9060ff801983541691151516179055565b1561329357565b60405162461bcd60e51b815260206004820152600b60248201526a4e6f742070656e64696e6760a81b6044820152606490fd5b8054600160401b8110156109ce576132e391600182018155612fb6565b919091612528576080816004925184556020810151600185015560408101516002850155606081015160038501550151910155565b6001600160a01b03918216815291166020820152604081019190915260600190565b8054600160401b8110156109ce5761335791600182018155612ffc565b91909161252857805182546001600160a01b039182166001600160a01b031991821617845560208301516001850180549190931691161790556040810151600283015560600151600390910155565b156133ad57565b60405162461bcd60e51b815260206004820152601660248201527552657175657374206973206e6f742070656e64696e6760501b6044820152606490fd5b5f818152600260205260409020546001600160a01b031690811561340d575090565b637e27328960e01b5f5260045260245ffd5b335f9081527f54cdd369e4e8a8515e52ca72ec816c2101831ad1f18bf44102ed171459c9b4f8602052604090205460ff161561345757565b63e2517d3f60e01b5f52336004525f60245260445ffd5b335f9081525f5160206139365f395f51905f52602052604090205460ff161561349357565b63e2517d3f60e01b5f52336004525f5160206139965f395f51905f5260245260445ffd5b5f81815260066020908152604080832033845290915290205460ff16156134db5750565b63e2517d3f60e01b5f523360045260245260445ffd5b5f828152600260205260409020549091906001600160a01b0316151580613603575b6135b1575b5f818152600260205260409020546001600160a01b03169182613590575b6001600160a01b031680613578575b5f82815260026020526040812080546001600160a01b0319168317905583905f5160206139765f395f51905f529080a490565b805f52600360205260405f2060018154019055613545565b613599826138b8565b825f52600360205260405f205f198154019055613536565b3330146135185760405162461bcd60e51b815260206004820152603060248201525f5160206139565f395f51905f5260448201526f6666696369616c20706c6174666f726d60801b6064820152608490fd5b5060ff600c5460a01c16613513565b6001600160a01b0381165f9081525f5160206139365f395f51905f52602052604090205460ff16613692576001600160a01b03165f8181525f5160206139365f395f51905f5260205260408120805460ff191660011790553391905f5160206139965f395f51905f52905f5160206138d65f395f51905f529080a4600190565b505f90565b5f8181526006602090815260408083206001600160a01b038616845290915290205460ff1661370a575f8181526006602090815260408083206001600160a01b0395909516808452949091528120805460ff19166001179055339291905f5160206138d65f395f51905f529080a4600190565b50505f90565b5f8181526006602090815260408083206001600160a01b038616845290915290205460ff161561370a575f8181526006602090815260408083206001600160a01b0395909516808452949091528120805460ff19169055339291907ff6391f5c32d9c69d2a47ea670b442974b53935d1edc7fd64eb21e047a839171b9080a4600190565b823b6137a2575b5050505050565b604051630a85bd0160e11b81526001600160a01b0391821660048201529181166024830152604482019390935260806064820152911691602090829081906137ee906084830190612bad565b03815f865af15f9181613873575b5061385157503d1561384a573d61381281612ce6565b906138206040519283612cc3565b81523d5f602083013e5b805190816138455782633250574960e11b5f5260045260245ffd5b602001fd5b606061382a565b6001600160e01b03191663757a42ff60e11b01610aad57505f8080808061379b565b9091506020813d6020116138b0575b8161388f60209383612cc3565b81010312610af857516001600160e01b031981168103610af857905f6137fc565b3d9150613882565b5f90815260046020526040902080546001600160a01b031916905556fe2f8788117e7eff1d82e926ec794901d17c78024a50270940304540a733656f0dc86d611ad2e111a956a8759fe9c4422543f4583e462628c95cb2c20e1c0df9eb544ed8f25bea0ebc5279f4d75c2bd009d5fac6f14adb99dfc47c43a4a53d79a80c3bb05773fb95f6688e1e7d9c896674dccd66884026cf30a3d5e3a9bfecd8115472616e7366657273206f6e6c7920616c6c6f776564207468726f756768206fddf252ad1be2c89b69c2b068fc378daa952ba7f163c4a11628f55a4df523b3efa49807205ce4d355092ef5a8a18f56e8913cf4a201fbe287825b095693c2177599593786774c6f33049716fd956b1672f46813adf0f67f51f81345b36ba0b847a26469706673582212201bfc27e1bb0c74e9f00a2993ca49e367b874a5aff241f9976204dec371eccbd764736f6c634300081c00332f8788117e7eff1d82e926ec794901d17c78024a50270940304540a733656f0d0c3bb05773fb95f6688e1e7d9c896674dccd66884026cf30a3d5e3a9bfecd81154cdd369e4e8a8515e52ca72ec816c2101831ad1f18bf44102ed171459c9b4f8",
  "linkReferences": {},
  "deployedLinkReferences": {},
  "immutableReferences": {},
  "inputSourceName": "project/contracts/RealEstate.sol",
  "buildInfoId": "solc-0_8_28-980002b890c483607c90fd53c195d68517fb3eea"
}