{
  "_format": "hh3-artifact-1",
  "contractName": "RealEstate",
  "sourceName": "contracts/RealEstate.sol",
  "abi": [
    {
      "inputs": [
        {
          "internalType": "address",
          "name": "_governmentWallet",
          "type": "address"
        }
      ],
      "stateMutability": "nonpayable",
      "type": "constructor"
    },
    {
      "inputs": [],
      "name": "AccessControlBadConfirmation",
      "type": "error"
    },
    {
      "inputs": [
        {
          "internalType": "address",
          "name": "account",
          "type": "address"
        },
        {
          "internalType": "bytes32",
          "name": "neededRole",
          "type": "bytes32"
        }
      ],
      "name": "AccessControlUnauthorizedAccount",
      "type": "error"
    },
    {
      "inputs": [
        {
          "internalType": "address",
          "name": "sender",
          "type": "address"
        },
        {
          "internalType": "uint256",
          "name": "tokenId",
          "type": "uint256"
        },
        {
          "internalType": "address",
          "name": "owner",
          "type": "address"
        }
      ],
      "name": "ERC721IncorrectOwner",
      "type": "error"
    },
    {
      "inputs": [
        {
          "internalType": "address",
          "name": "operator",
          "type": "address"
        },
        {
          "internalType": "uint256",
          "name": "tokenId",
          "type": "uint256"
        }
      ],
      "name": "ERC721InsufficientApproval",
      "type": "error"
    },
    {
      "inputs": [
        {
          "internalType": "address",
          "name": "approver",
          "type": "address"
        }
      ],
      "name": "ERC721InvalidApprover",
      "type": "error"
    },
    {
      "inputs": [
        {
          "internalType": "address",
          "name": "operator",
          "type": "address"
        }
      ],
      "name": "ERC721InvalidOperator",
      "type": "error"
    },
    {
      "inputs": [
        {
          "internalType": "address",
          "name": "owner",
          "type": "address"
        }
      ],
      "name": "ERC721InvalidOwner",
      "type": "error"
    },
    {
      "inputs": [
        {
          "internalType": "address",
          "name": "receiver",
          "type": "address"
        }
      ],
      "name": "ERC721InvalidReceiver",
      "type": "error"
    },
    {
      "inputs": [
        {
          "internalType": "address",
          "name": "sender",
          "type": "address"
        }
      ],
      "name": "ERC721InvalidSender",
      "type": "error"
    },
    {
      "inputs": [
        {
          "internalType": "uint256",
          "name": "tokenId",
          "type": "uint256"
        }
      ],
      "name": "ERC721NonexistentToken",
      "type": "error"
    },
    {
      "anonymous": false,
      "inputs": [
        {
          "indexed": true,
          "internalType": "address",
          "name": "owner",
          "type": "address"
        },
        {
          "indexed": true,
          "internalType": "address",
          "name": "approved",
          "type": "address"
        },
        {
          "indexed": true,
          "internalType": "uint256",
          "name": "tokenId",
          "type": "uint256"
        }
      ],
      "name": "Approval",
      "type": "event"
    },
    {
      "anonymous": false,
      "inputs": [
        {
          "indexed": true,
          "internalType": "address",
          "name": "owner",
          "type": "address"
        },
        {
          "indexed": true,
          "internalType": "address",
          "name": "operator",
          "type": "address"
        },
        {
          "indexed": false,
          "internalType": "bool",
          "name": "approved",
          "type": "bool"
        }
      ],
      "name": "ApprovalForAll",
      "type": "event"
    },
    {
      "anonymous": false,
      "inputs": [
        {
          "indexed": true,
          "internalType": "uint256",
          "name": "propertyId",
          "type": "uint256"
        },
        {
          "indexed": false,
          "internalType": "uint256",
          "name": "versionNo",
          "type": "uint256"
        },
        {
          "indexed": false,
          "internalType": "bytes32",
          "name": "metadataHash",
          "type": "bytes32"
        }
      ],
      "name": "MetadataUpdated",
      "type": "event"
    },
    {
      "anonymous": false,
      "inputs": [
        {
          "indexed": true,
          "internalType": "uint256",
          "name": "propertyId",
          "type": "uint256"
        },
        {
          "indexed": false,
          "internalType": "uint256",
          "name": "price",
          "type": "uint256"
        }
      ],
      "name": "PropertyListed",
      "type": "event"
    },
    {
      "anonymous": false,
      "inputs": [
        {
          "indexed": true,
          "internalType": "uint256",
          "name": "propertyId",
          "type": "uint256"
        },
        {
          "indexed": false,
          "internalType": "uint256",
          "name": "rentPriceWei",
          "type": "uint256"
        }
      ],
      "name": "PropertyListedForRent",
      "type": "event"
    },
    {
      "anonymous": false,
      "inputs": [
        {
          "indexed": true,
          "internalType": "uint256",
          "name": "propertyId",
          "type": "uint256"
        },
        {
          "indexed": false,
          "internalType": "address",
          "name": "tenant",
          "type": "address"
        },
        {
          "indexed": false,
          "internalType": "uint256",
          "name": "rentPaid",
          "type": "uint256"
        }
      ],
      "name": "PropertyRented",
      "type": "event"
    },
    {
      "anonymous": false,
      "inputs": [
        {
          "indexed": true,
          "internalType": "uint256",
          "name": "propertyId",
          "type": "uint256"
        },
        {
          "indexed": false,
          "internalType": "address",
          "name": "from",
          "type": "address"
        },
        {
          "indexed": false,
          "internalType": "address",
          "name": "to",
          "type": "address"
        },
        {
          "indexed": false,
          "internalType": "uint256",
          "name": "price",
          "type": "uint256"
        }
      ],
      "name": "PropertySold",
      "type": "event"
    },
    {
      "anonymous": false,
      "inputs": [
        {
          "indexed": true,
          "internalType": "uint256",
          "name": "requestId",
          "type": "uint256"
        },
        {
          "indexed": false,
          "internalType": "uint256",
          "name": "propertyId",
          "type": "uint256"
        }
      ],
      "name": "RequestApproved",
      "type": "event"
    },
    {
      "anonymous": false,
      "inputs": [
        {
          "indexed": true,
          "internalType": "uint256",
          "name": "requestId",
          "type": "uint256"
        },
        {
          "indexed": false,
          "internalType": "string",
          "name": "reason",
          "type": "string"
        }
      ],
      "name": "RequestDeclined",
      "type": "event"
    },
    {
      "anonymous": false,
      "inputs": [
        {
          "indexed": true,
          "internalType": "uint256",
          "name": "requestId",
          "type": "uint256"
        },
        {
          "indexed": false,
          "internalType": "address",
          "name": "requester",
          "type": "address"
        },
        {
          "indexed": false,
          "internalType": "string",
          "name": "name",
          "type": "string"
        }
      ],
      "name": "RequestSubmitted",
      "type": "event"
    },
    {
      "anonymous": false,
      "inputs": [
        {
          "indexed": true,
          "internalType": "bytes32",
          "name": "role",
          "type": "bytes32"
        },
        {
          "indexed": true,
          "internalType": "bytes32",
          "name": "previousAdminRole",
          "type": "bytes32"
        },
        {
          "indexed": true,
          "internalType": "bytes32",
          "name": "newAdminRole",
          "type": "bytes32"
        }
      ],
      "name": "RoleAdminChanged",
      "type": "event"
    },
    {
      "anonymous": false,
      "inputs": [
        {
          "indexed": true,
          "internalType": "bytes32",
          "name": "role",
          "type": "bytes32"
        },
        {
          "indexed": true,
          "internalType": "address",
          "name": "account",
          "type": "address"
        },
        {
          "indexed": true,
          "internalType": "address",
          "name": "sender",
          "type": "address"
        }
      ],
      "name": "RoleGranted",
      "type": "event"
    },
    {
      "anonymous": false,
      "inputs": [
        {
          "indexed": true,
          "internalType": "bytes32",
          "name": "role",
          "type": "bytes32"
        },
        {
          "indexed": true,
          "internalType": "address",
          "name": "account",
          "type": "address"
        },
        {
          "indexed": true,
          "internalType": "address",
          "name": "sender",
          "type": "address"
        }
      ],
      "name": "RoleRevoked",
      "type": "event"
    },
    {
      "anonymous": false,
      "inputs": [
        {
          "indexed": true,
          "internalType": "address",
          "name": "from",
          "type": "address"
        },
        {
          "indexed": true,
          "internalType": "address",
          "name": "to",
          "type": "address"
        },
        {
          "indexed": true,
          "internalType": "uint256",
          "name": "tokenId",
          "type": "uint256"
        }
      ],
      "name": "Transfer",
      "type": "event"
    },
    {
      "inputs": [],
      "name": "ADMIN_ROLE",
      "outputs": [
        {
          "internalType": "bytes32",
          "name": "",
          "type": "bytes32"
        }
      ],
      "stateMutability": "view",
      "type": "function"
    },
    {
      "inputs": [],
      "name": "DEFAULT_ADMIN_ROLE",
      "outputs": [
        {
          "internalType": "bytes32",
          "name": "",
          "type": "bytes32"
        }
      ],
      "stateMutability": "view",
      "type": "function"
    },
    {
      "inputs": [
        {
          "internalType": "address",
          "name": "account",
          "type": "address"
        }
      ],
      "name": "addAdmin",
      "outputs": [],
      "stateMutability": "nonpayable",
      "type": "function"
    },
    {
      "inputs": [
        {
          "internalType": "address",
          "name": "to",
          "type": "address"
        },
        {
          "internalType": "uint256",
          "name": "tokenId",
          "type": "uint256"
        }
      ],
      "name": "approve",
      "outputs": [],
      "stateMutability": "nonpayable",
      "type": "function"
    },
    {
      "inputs": [
        {
          "internalType": "uint256",
          "name": "requestId",
          "type": "uint256"
        }
      ],
      "name": "approveRequest",
      "outputs": [],
      "stateMutability": "nonpayable",
      "type": "function"
    },
    {
      "inputs": [
        {
          "internalType": "uint256",
          "name": "propertyId",
          "type": "uint256"
        },
        {
          "internalType": "uint256",
          "name": "updateIndex",
          "type": "uint256"
        }
      ],
      "name": "approveUpdateRequest",
      "outputs": [],
      "stateMutability": "nonpayable",
      "type": "function"
    },
    {
      "inputs": [
        {
          "internalType": "address",
          "name": "owner",
          "type": "address"
        }
      ],
      "name": "balanceOf",
      "outputs": [
        {
          "internalType": "uint256",
          "name": "",
          "type": "uint256"
        }
      ],
      "stateMutability": "view",
      "type": "function"
    },
    {
      "inputs": [
        {
          "internalType": "uint256",
          "name": "propertyId",
          "type": "uint256"
        }
      ],
      "name": "buyProperty",
      "outputs": [],
      "stateMutability": "payable",
      "type": "function"
    },
    {
      "inputs": [],
      "name": "commissionPercent",
      "outputs": [
        {
          "internalType": "uint256",
          "name": "",
          "type": "uint256"
        }
      ],
      "stateMutability": "view",
      "type": "function"
    },
    {
      "inputs": [
        {
          "internalType": "uint256",
          "name": "",
          "type": "uint256"
        }
      ],
      "name": "currentTenant",
      "outputs": [
        {
          "internalType": "address",
          "name": "",
          "type": "address"
        }
      ],
      "stateMutability": "view",
      "type": "function"
    },
    {
      "inputs": [
        {
          "internalType": "uint256",
          "name": "requestId",
          "type": "uint256"
        },
        {
          "internalType": "string",
          "name": "reason",
          "type": "string"
        }
      ],
      "name": "declineRequest",
      "outputs": [],
      "stateMutability": "nonpayable",
      "type": "function"
    },
    {
      "inputs": [
        {
          "internalType": "uint256",
          "name": "propertyId",
          "type": "uint256"
        },
        {
          "internalType": "uint256",
          "name": "updateIndex",
          "type": "uint256"
        },
        {
          "internalType": "string",
          "name": "reason",
          "type": "string"
        }
      ],
      "name": "declineUpdateRequest",
      "outputs": [],
      "stateMutability": "nonpayable",
      "type": "function"
    },
    {
      "inputs": [
        {
          "internalType": "uint256",
          "name": "tokenId",
          "type": "uint256"
        }
      ],
      "name": "getApproved",
      "outputs": [
        {
          "internalType": "address",
          "name": "",
          "type": "address"
        }
      ],
      "stateMutability": "view",
      "type": "function"
    },
    {
      "inputs": [
        {
          "internalType": "uint256",
          "name": "propertyId",
          "type": "uint256"
        }
      ],
      "name": "getLatestHashes",
      "outputs": [
        {
          "internalType": "bytes32",
          "name": "metadataHash",
          "type": "bytes32"
        },
        {
          "internalType": "bytes32",
          "name": "imagesRootHash",
          "type": "bytes32"
        },
        {
          "internalType": "bytes32",
          "name": "documentsRootHash",
          "type": "bytes32"
        }
      ],
      "stateMutability": "view",
      "type": "function"
    },
    {
      "inputs": [
        {
          "internalType": "uint256",
          "name": "propertyId",
          "type": "uint256"
        }
      ],
      "name": "getMetadataVersions",
      "outputs": [
        {
          "components": [
            {
              "internalType": "bytes32",
              "name": "metadataHash",
              "type": "bytes32"
            },
            {
              "internalType": "bytes32",
              "name": "imagesRootHash",
              "type": "bytes32"
            },
            {
              "internalType": "bytes32",
              "name": "documentsRootHash",
              "type": "bytes32"
            },
            {
              "internalType": "uint256",
              "name": "timestamp",
              "type": "uint256"
            },
            {
              "internalType": "uint256",
              "name": "versionNo",
              "type": "uint256"
            }
          ],
          "internalType": "struct RealEstate.MetadataVersion[]",
          "name": "",
          "type": "tuple[]"
        }
      ],
      "stateMutability": "view",
      "type": "function"
    },
    {
      "inputs": [
        {
          "internalType": "uint256",
          "name": "propertyId",
          "type": "uint256"
        }
      ],
      "name": "getOwnershipHistory",
      "outputs": [
        {
          "components": [
            {
              "internalType": "address",
              "name": "from",
              "type": "address"
            },
            {
              "internalType": "address",
              "name": "to",
              "type": "address"
            },
            {
              "internalType": "uint256",
              "name": "price",
              "type": "uint256"
            },
            {
              "internalType": "uint256",
              "name": "timestamp",
              "type": "uint256"
            }
          ],
          "internalType": "struct RealEstate.OwnershipRecord[]",
          "name": "",
          "type": "tuple[]"
        }
      ],
      "stateMutability": "view",
      "type": "function"
    },
    {
      "inputs": [
        {
          "internalType": "bytes32",
          "name": "role",
          "type": "bytes32"
        }
      ],
      "name": "getRoleAdmin",
      "outputs": [
        {
          "internalType": "bytes32",
          "name": "",
          "type": "bytes32"
        }
      ],
      "stateMutability": "view",
      "type": "function"
    },
    {
      "inputs": [],
      "name": "getTotalProperties",
      "outputs": [
        {
          "internalType": "uint256",
          "name": "",
          "type": "uint256"
        }
      ],
      "stateMutability": "view",
      "type": "function"
    },
    {
      "inputs": [],
      "name": "getTotalRequests",
      "outputs": [
        {
          "internalType": "uint256",
          "name": "",
          "type": "uint256"
        }
      ],
      "stateMutability": "view",
      "type": "function"
    },
    {
      "inputs": [
        {
          "internalType": "uint256",
          "name": "propertyId",
          "type": "uint256"
        }
      ],
      "name": "getUpdateRequests",
      "outputs": [
        {
          "components": [
            {
              "internalType": "uint256",
              "name": "id",
              "type": "uint256"
            },
            {
              "internalType": "uint256",
              "name": "propertyId",
              "type": "uint256"
            },
            {
              "internalType": "address",
              "name": "requester",
              "type": "address"
            },
            {
              "internalType": "bytes32",
              "name": "newMetadataHash",
              "type": "bytes32"
            },
            {
              "internalType": "bytes32",
              "name": "newImagesRootHash",
              "type": "bytes32"
            },
            {
              "internalType": "bytes32",
              "name": "newDocumentsRootHash",
              "type": "bytes32"
            },
            {
              "internalType": "enum RealEstate.UpdateStatus",
              "name": "status",
              "type": "uint8"
            },
            {
              "internalType": "string",
              "name": "declineReason",
              "type": "string"
            },
            {
              "internalType": "uint256",
              "name": "timestamp",
              "type": "uint256"
            }
          ],
          "internalType": "struct RealEstate.UpdateRequest[]",
          "name": "",
          "type": "tuple[]"
        }
      ],
      "stateMutability": "view",
      "type": "function"
    },
    {
      "inputs": [],
      "name": "governmentWallet",
      "outputs": [
        {
          "internalType": "address",
          "name": "",
          "type": "address"
        }
      ],
      "stateMutability": "view",
      "type": "function"
    },
    {
      "inputs": [
        {
          "internalType": "bytes32",
          "name": "role",
          "type": "bytes32"
        },
        {
          "internalType": "address",
          "name": "account",
          "type": "address"
        }
      ],
      "name": "grantRole",
      "outputs": [],
      "stateMutability": "nonpayable",
      "type": "function"
    },
    {
      "inputs": [
        {
          "internalType": "bytes32",
          "name": "role",
          "type": "bytes32"
        },
        {
          "internalType": "address",
          "name": "account",
          "type": "address"
        }
      ],
      "name": "hasRole",
      "outputs": [
        {
          "internalType": "bool",
          "name": "",
          "type": "bool"
        }
      ],
      "stateMutability": "view",
      "type": "function"
    },
    {
      "inputs": [
        {
          "internalType": "address",
          "name": "account",
          "type": "address"
        }
      ],
      "name": "isAdmin",
      "outputs": [
        {
          "internalType": "bool",
          "name": "",
          "type": "bool"
        }
      ],
      "stateMutability": "view",
      "type": "function"
    },
    {
      "inputs": [
        {
          "internalType": "address",
          "name": "owner",
          "type": "address"
        },
        {
          "internalType": "address",
          "name": "operator",
          "type": "address"
        }
      ],
      "name": "isApprovedForAll",
      "outputs": [
        {
          "internalType": "bool",
          "name": "",
          "type": "bool"
        }
      ],
      "stateMutability": "view",
      "type": "function"
    },
    {
      "inputs": [
        {
          "internalType": "uint256",
          "name": "",
          "type": "uint256"
        }
      ],
      "name": "isForRent",
      "outputs": [
        {
          "internalType": "bool",
          "name": "",
          "type": "bool"
        }
      ],
      "stateMutability": "view",
      "type": "function"
    },
    {
      "inputs": [
        {
          "internalType": "uint256",
          "name": "propertyId",
          "type": "uint256"
        },
        {
          "internalType": "uint256",
          "name": "rentPriceInEther",
          "type": "uint256"
        }
      ],
      "name": "listForRent",
      "outputs": [],
      "stateMutability": "nonpayable",
      "type": "function"
    },
    {
      "inputs": [
        {
          "internalType": "uint256",
          "name": "propertyId",
          "type": "uint256"
        },
        {
          "internalType": "uint256",
          "name": "priceInEther",
          "type": "uint256"
        }
      ],
      "name": "listProperty",
      "outputs": [],
      "stateMutability": "nonpayable",
      "type": "function"
    },
    {
      "inputs": [
        {
          "internalType": "uint256",
          "name": "",
          "type": "uint256"
        },
        {
          "internalType": "uint256",
          "name": "",
          "type": "uint256"
        }
      ],
      "name": "metadataVersions",
      "outputs": [
        {
          "internalType": "bytes32",
          "name": "metadataHash",
          "type": "bytes32"
        },
        {
          "internalType": "bytes32",
          "name": "imagesRootHash",
          "type": "bytes32"
        },
        {
          "internalType": "bytes32",
          "name": "documentsRootHash",
          "type": "bytes32"
        },
        {
          "internalType": "uint256",
          "name": "timestamp",
          "type": "uint256"
        },
        {
          "internalType": "uint256",
          "name": "versionNo",
          "type": "uint256"
        }
      ],
      "stateMutability": "view",
      "type": "function"
    },
    {
      "inputs": [],
      "name": "name",
      "outputs": [
        {
          "internalType": "string",
          "name": "",
          "type": "string"
        }
      ],
      "stateMutability": "view",
      "type": "function"
    },
    {
      "inputs": [
        {
          "internalType": "uint256",
          "name": "tokenId",
          "type": "uint256"
        }
      ],
      "name": "ownerOf",
      "outputs": [
        {
          "internalType": "address",
          "name": "",
          "type": "address"
        }
      ],
      "stateMutability": "view",
      "type": "function"
    },
    {
      "inputs": [
        {
          "internalType": "uint256",
          "name": "",
          "type": "uint256"
        },
        {
          "internalType": "uint256",
          "name": "",
          "type": "uint256"
        }
      ],
      "name": "ownershipHistory",
      "outputs": [
        {
          "internalType": "address",
          "name": "from",
          "type": "address"
        },
        {
          "internalType": "address",
          "name": "to",
          "type": "address"
        },
        {
          "internalType": "uint256",
          "name": "price",
          "type": "uint256"
        },
        {
          "internalType": "uint256",
          "name": "timestamp",
          "type": "uint256"
        }
      ],
      "stateMutability": "view",
      "type": "function"
    },
    {
      "inputs": [
        {
          "internalType": "uint256",
          "name": "",
          "type": "uint256"
        }
      ],
      "name": "properties",
      "outputs": [
        {
          "internalType": "uint256",
          "name": "id",
          "type": "uint256"
        },
        {
          "internalType": "address",
          "name": "owner",
          "type": "address"
        },
        {
          "components": [
            {
              "internalType": "string",
              "name": "name",
              "type": "string"
            },
            {
              "internalType": "string",
              "name": "location",
              "type": "string"
            },
            {
              "internalType": "string",
              "name": "propertyType",
              "type": "string"
            },
            {
              "internalType": "uint256",
              "name": "price",
              "type": "uint256"
            },
            {
              "internalType": "bool",
              "name": "isForSale",
              "type": "bool"
            },
            {
              "internalType": "bytes32",
              "name": "metadataHash",
              "type": "bytes32"
            },
            {
              "internalType": "bytes32",
              "name": "imagesRootHash",
              "type": "bytes32"
            },
            {
              "internalType": "bytes32",
              "name": "documentsRootHash",
              "type": "bytes32"
            },
            {
              "internalType": "uint256",
              "name": "bedrooms",
              "type": "uint256"
            },
            {
              "internalType": "uint256",
              "name": "bathrooms",
              "type": "uint256"
            },
            {
              "internalType": "uint256",
              "name": "sqft",
              "type": "uint256"
            },
            {
              "internalType": "uint256",
              "name": "parking",
              "type": "uint256"
            },
            {
              "internalType": "uint256",
              "name": "floors",
              "type": "uint256"
            },
            {
              "internalType": "uint256",
              "name": "yearBuilt",
              "type": "uint256"
            }
          ],
          "internalType": "struct RealEstate.PropertyDetails",
          "name": "details",
          "type": "tuple"
        }
      ],
      "stateMutability": "view",
      "type": "function"
    },
    {
      "inputs": [],
      "name": "registrationFee",
      "outputs": [
        {
          "internalType": "uint256",
          "name": "",
          "type": "uint256"
        }
      ],
      "stateMutability": "view",
      "type": "function"
    },
    {
      "inputs": [
        {
          "internalType": "bytes32",
          "name": "role",
          "type": "bytes32"
        },
        {
          "internalType": "address",
          "name": "callerConfirmation",
          "type": "address"
        }
      ],
      "name": "renounceRole",
      "outputs": [],
      "stateMutability": "nonpayable",
      "type": "function"
    },
    {
      "inputs": [
        {
          "internalType": "uint256",
          "name": "",
          "type": "uint256"
        }
      ],
      "name": "rentPrice",
      "outputs": [
        {
          "internalType": "uint256",
          "name": "",
          "type": "uint256"
        }
      ],
      "stateMutability": "view",
      "type": "function"
    },
    {
      "inputs": [
        {
          "internalType": "uint256",
          "name": "propertyId",
          "type": "uint256"
        }
      ],
      "name": "rentProperty",
      "outputs": [],
      "stateMutability": "payable",
      "type": "function"
    },
    {
      "inputs": [
        {
          "internalType": "uint256",
          "name": "",
          "type": "uint256"
        }
      ],
      "name": "requests",
      "outputs": [
        {
          "internalType": "uint256",
          "name": "id",
          "type": "uint256"
        },
        {
          "internalType": "address",
          "name": "requester",
          "type": "address"
        },
        {
          "components": [
            {
              "internalType": "string",
              "name": "name",
              "type": "string"
            },
            {
              "internalType": "string",
              "name": "location",
              "type": "string"
            },
            {
              "internalType": "string",
              "name": "propertyType",
              "type": "string"
            },
            {
              "internalType": "uint256",
              "name": "price",
              "type": "uint256"
            },
            {
              "internalType": "bool",
              "name": "isForSale",
              "type": "bool"
            },
            {
              "internalType": "bytes32",
              "name": "metadataHash",
              "type": "bytes32"
            },
            {
              "internalType": "bytes32",
              "name": "imagesRootHash",
              "type": "bytes32"
            },
            {
              "internalType": "bytes32",
              "name": "documentsRootHash",
              "type": "bytes32"
            },
            {
              "internalType": "uint256",
              "name": "bedrooms",
              "type": "uint256"
            },
            {
              "internalType": "uint256",
              "name": "bathrooms",
              "type": "uint256"
            },
            {
              "internalType": "uint256",
              "name": "sqft",
              "type": "uint256"
            },
            {
              "internalType": "uint256",
              "name": "parking",
              "type": "uint256"
            },
            {
              "internalType": "uint256",
              "name": "floors",
              "type": "uint256"
            },
            {
              "internalType": "uint256",
              "name": "yearBuilt",
              "type": "uint256"
            }
          ],
          "internalType": "struct RealEstate.PropertyDetails",
          "name": "details",
          "type": "tuple"
        },
        {
          "internalType": "enum RealEstate.RequestStatus",
          "name": "status",
          "type": "uint8"
        },
        {
          "internalType": "string",
          "name": "declineReason",
          "type": "string"
        }
      ],
      "stateMutability": "view",
      "type": "function"
    },
    {
      "inputs": [
        {
          "internalType": "bytes32",
          "name": "role",
          "type": "bytes32"
        },
        {
          "internalType": "address",
          "name": "account",
          "type": "address"
        }
      ],
      "name": "revokeRole",
      "outputs": [],
      "stateMutability": "nonpayable",
      "type": "function"
    },
    {
      "inputs": [
        {
          "internalType": "address",
          "name": "from",
          "type": "address"
        },
        {
          "internalType": "address",
          "name": "to",
          "type": "address"
        },
        {
          "internalType": "uint256",
          "name": "tokenId",
          "type": "uint256"
        }
      ],
      "name": "safeTransferFrom",
      "outputs": [],
      "stateMutability": "nonpayable",
      "type": "function"
    },
    {
      "inputs": [
        {
          "internalType": "address",
          "name": "from",
          "type": "address"
        },
        {
          "internalType": "address",
          "name": "to",
          "type": "address"
        },
        {
          "internalType": "uint256",
          "name": "tokenId",
          "type": "uint256"
        },
        {
          "internalType": "bytes",
          "name": "data",
          "type": "bytes"
        }
      ],
      "name": "safeTransferFrom",
      "outputs": [],
      "stateMutability": "nonpayable",
      "type": "function"
    },
    {
      "inputs": [
        {
          "internalType": "address",
          "name": "operator",
          "type": "address"
        },
        {
          "internalType": "bool",
          "name": "approved",
          "type": "bool"
        }
      ],
      "name": "setApprovalForAll",
      "outputs": [],
      "stateMutability": "nonpayable",
      "type": "function"
    },
    {
      "inputs": [
        {
          "internalType": "uint256",
          "name": "percent",
          "type": "uint256"
        }
      ],
      "name": "setCommission",
      "outputs": [],
      "stateMutability": "nonpayable",
      "type": "function"
    },
    {
      "inputs": [
        {
          "internalType": "uint256",
          "name": "feeInWei",
          "type": "uint256"
        }
      ],
      "name": "setRegistrationFee",
      "outputs": [],
      "stateMutability": "nonpayable",
      "type": "function"
    },
    {
      "inputs": [
        {
          "components": [
            {
              "internalType": "string",
              "name": "name",
              "type": "string"
            },
            {
              "internalType": "string",
              "name": "location",
              "type": "string"
            },
            {
              "internalType": "string",
              "name": "propertyType",
              "type": "string"
            },
            {
              "internalType": "uint256",
              "name": "price",
              "type": "uint256"
            },
            {
              "internalType": "bool",
              "name": "isForSale",
              "type": "bool"
            },
            {
              "internalType": "bytes32",
              "name": "metadataHash",
              "type": "bytes32"
            },
            {
              "internalType": "bytes32",
              "name": "imagesRootHash",
              "type": "bytes32"
            },
            {
              "internalType": "bytes32",
              "name": "documentsRootHash",
              "type": "bytes32"
            },
            {
              "internalType": "uint256",
              "name": "bedrooms",
              "type": "uint256"
            },
            {
              "internalType": "uint256",
              "name": "bathrooms",
              "type": "uint256"
            },
            {
              "internalType": "uint256",
              "name": "sqft",
              "type": "uint256"
            },
            {
              "internalType": "uint256",
              "name": "parking",
              "type": "uint256"
            },
            {
              "internalType": "uint256",
              "name": "floors",
              "type": "uint256"
            },
            {
              "internalType": "uint256",
              "name": "yearBuilt",
              "type": "uint256"
            }
          ],
          "internalType": "struct RealEstate.PropertyDetails",
          "name": "details",
          "type": "tuple"
        }
      ],
      "name": "submitRequest",
      "outputs": [],
      "stateMutability": "payable",
      "type": "function"
    },
    {
      "inputs": [
        {
          "internalType": "uint256",
          "name": "propertyId",
          "type": "uint256"
        },
        {
          "internalType": "bytes32",
          "name": "newMetadataHash",
          "type": "bytes32"
        },
        {
          "internalType": "bytes32",
          "name": "newImagesRootHash",
          "type": "bytes32"
        },
        {
          "internalType": "bytes32",
          "name": "newDocumentsRootHash",
          "type": "bytes32"
        }
      ],
      "name": "submitUpdateRequest",
      "outputs": [],
      "stateMutability": "nonpayable",
      "type": "function"
    },
    {
      "inputs": [
        {
          "internalType": "bytes4",
          "name": "interfaceId",
          "type": "bytes4"
        }
      ],
      "name": "supportsInterface",
      "outputs": [
        {
          "internalType": "bool",
          "name": "",
          "type": "bool"
        }
      ],
      "stateMutability": "view",
      "type": "function"
    },
    {
      "inputs": [],
      "name": "symbol",
      "outputs": [
        {
          "internalType": "string",
          "name": "",
          "type": "string"
        }
      ],
      "stateMutability": "view",
      "type": "function"
    },
    {
      "inputs": [
        {
          "internalType": "uint256",
          "name": "tokenId",
          "type": "uint256"
        }
      ],
      "name": "tokenURI",
      "outputs": [
        {
          "internalType": "string",
          "name": "",
          "type": "string"
        }
      ],
      "stateMutability": "view",
      "type": "function"
    },
    {
      "inputs": [
        {
          "internalType": "address",
          "name": "from",
          "type": "address"
        },
        {
          "internalType": "address",
          "name": "to",
          "type": "address"
        },
        {
          "internalType": "uint256",
          "name": "tokenId",
          "type": "uint256"
        }
      ],
      "name": "transferFrom",
      "outputs": [],
      "stateMutability": "nonpayable",
      "type": "function"
    },
    {
      "inputs": [
        {
          "internalType": "uint256",
          "name": "",
          "type": "uint256"
        },
        {
          "internalType": "uint256",
          "name": "",
          "type": "uint256"
        }
      ],
      "name": "updateRequests",
      "outputs": [
        {
          "internalType": "uint256",
          "name": "id",
          "type": "uint256"
        },
        {
          "internalType": "uint256",
          "name": "propertyId",
          "type": "uint256"
        },
        {
          "internalType": "address",
          "name": "requester",
          "type": "address"
        },
        {
          "internalType": "bytes32",
          "name": "newMetadataHash",
          "type": "bytes32"
        },
        {
          "internalType": "bytes32",
          "name": "newImagesRootHash",
          "type": "bytes32"
        },
        {
          "internalType": "bytes32",
          "name": "newDocumentsRootHash",
          "type": "bytes32"
        },
        {
          "internalType": "enum RealEstate.UpdateStatus",
          "name": "status",
          "type": "uint8"
        },
        {
          "internalType": "string",
          "name": "declineReason",
          "type": "string"
        },
        {
          "internalType": "uint256",
          "name": "timestamp",
          "type": "uint256"
        }
      ],
      "stateMutability": "view",
      "type": "function"
    }
  ],
  "bytecode": "0x60806040523461036157613f806020813803918261001c81610365565b93849283398101031261036157516001600160a01b03811690819003610361576100466040610365565b90600d82526c1499585b115cdd185d19539195609a1b602083015261006b6040610365565b6005815264149153919560da1b602082015282519091906001600160401b038111610275575f54600181811c91168015610357575b602082101461025757601f81116102f5575b506020601f821160011461029457819293945f92610289575b50508160011b915f199060031b1c1916175f555b81516001600160401b03811161027557600154600181811c9116801561026b575b602082101461025757601f81116101f4575b50602092601f821160011461019357928192935f92610188575b50508160011b915f199060031b1c1916176001555b6002600e5566f8b0a10e470000600f5561015a3361038a565b5061016433610400565b50601080546001600160a01b031916919091179055604051613a8c90816104948239f35b015190505f8061012c565b601f1982169360015f52805f20915f5b8681106101dc57508360019596106101c4575b505050811b01600155610141565b01515f1960f88460031b161c191690555f80806101b6565b919260206001819286850151815501940192016101a3565b60015f527fb10e2d527612073b26eecdfd717e6a320cf44b4afac2b0732d9fcbe2b7fa0cf6601f830160051c8101916020841061024d575b601f0160051c01905b8181106102425750610112565b5f8155600101610235565b909150819061022c565b634e487b7160e01b5f52602260045260245ffd5b90607f1690610100565b634e487b7160e01b5f52604160045260245ffd5b015190505f806100cb565b601f198216905f8052805f20915f5b8181106102dd575095836001959697106102c5575b505050811b015f556100df565b01515f1960f88460031b161c191690555f80806102b8565b9192602060018192868b0151815501940192016102a3565b5f80527f290decd9548b62a8d60345a988386fc84ba6bc95484008f6362f93160ef3e563601f830160051c8101916020841061034d575b601f0160051c01905b81811061034257506100b2565b5f8155600101610335565b909150819061032c565b90607f16906100a0565b5f80fd5b6040519190601f01601f191682016001600160401b0381118382101761027557604052565b6001600160a01b0381165f9081525f516020613f605f395f51905f52602052604090205460ff166103fb576001600160a01b03165f8181525f516020613f605f395f51905f5260205260408120805460ff191660011790553391905f516020613f205f395f51905f528180a4600190565b505f90565b6001600160a01b0381165f9081525f516020613f405f395f51905f52602052604090205460ff166103fb576001600160a01b03165f8181525f516020613f405f395f51905f5260205260408120805460ff191660011790553391907fa49807205ce4d355092ef5a8a18f56e8913cf4a201fbe287825b095693c21775905f516020613f205f395f51905f529080a460019056fe6080806040526004361015610012575f80fd5b5f905f3560e01c90816301ffc9a714612b395750806306fdde0314612a97578063081812fc14612a5b578063095ea7b31461297157806314c44e091461295457806317aaf5ed1461293757806323b872dd14612920578063248a9ca3146128fa57806324a1f737146127ee57806324d7806c146127a05780632f2ff15d1461276f578063355e6b431461270b578063364f064b146126c757806336568abe146126835780633b46ff46146124395780633f9df7591461228757806342842e0e1461225e5780634ad4988014611aab5780634eda529b146119df5780636352211e146119af5780636766ce761461188b5780636bd7f400146118615780636fa830a61461161957806370480275146115f057806370a082311461159f57806375b238fc1461157857806377d3550b1461155b57806381d12c58146114c75780638c7582451461146257806391ab866d1461143057806391d14854146113e757806395d89b411461131d5780639d36ab6c146111845780639dce522e1461100e578063a217fddf14610ff4578063a22c369714610fc5578063a22cb46514610f14578063a4a348e714610eec578063a5a7026514610d41578063b88d4fde14610ce0578063c320c72714610cbf578063c38eaaa614610c00578063c87b56dd14610ba7578063c9cf2adc14610b3a578063d547741f14610aff578063d7d1bbdb1461052b578063e985e9c5146104d3578063f0e22d52146104b5578063f1dbaccb1461039f578063f3fc066f146102b45763f7b108081461024f575f80fd5b346102b15760203660031901126102b1576004358152601160205260409020805460018201546001600160a01b0316916102ad9061028f90600201612e54565b60405193849384526020840152606060408401526060830190612f0a565b0390f35b80fd5b50346102b1576102c336612d66565b6102df6102cf836135da565b6001600160a01b0316331461324f565b801561036757818352600b60205260408320600160ff19825416179055670de0b6b3a76400008102908104670de0b6b3a7640000036103535760207fd01a378ab4675d93041e3feb288811ad33f62a6ccfeab955d227ec109fd7091091838552600c8252806040862055604051908152a280f35b634e487b7160e01b83526011600452602483fd5b60405162461bcd60e51b815260206004820152601060248201526f052656e74206d757374206265203e20360841b6044820152606490fd5b50346102b15760203660031901126102b157600435815260136020526040812080546103ca81613238565b906103d86040519283612cd4565b80825260208201809385526020852085915b83831061046657868587604051928392602084019060208552518091526040840192915b81811061041c575050500390f35b825180516001600160a01b0390811686526020828101519091168187015260408083015190870152606091820151918601919091528695506080909401939092019160010161040e565b6004602060019260405161047981612cb9565b848060a01b038654168152848060a01b0385870154168382015260028601546040820152600386015460608201528152019201920191906103ea565b50346102b157806003193601126102b1576020600854604051908152f35b50346102b15760403660031901126102b15760406104ef612be2565b916104f8612bf8565b9260018060a01b031681526005602052209060018060a01b03165f52602052602060ff60405f2054166040519015158152f35b50346102b15760203660031901126102b157600435610548613754565b808252601260205260408220601081016001815461057260ff821661056c81612c48565b15613300565b60ff19161790556007549061058682613287565b6007556001810180546001600160a01b03168015610aeb576001600160a01b03906105b290859061360e565b16610ad7578054604051906001600160a01b0316606082016001600160401b03811183821017610ac357604052848252602082019081526105f560028501612e54565b6040838101918252868952601160205288209251835590516001830180546001600160a01b0319166001600160a01b0392909216919091179055518051805160028401916001600160401b0382116109355781906106538454612d7c565b601f8111610a73575b50602090601f8311600114610a11578b92610a06575b50508160011b915f199060031b1c19161790555b6020810151805160038401916001600160401b0382116109355781906106ac8454612d7c565b601f81116109b6575b50602090601f8311600114610954578b92610949575b50508160011b915f199060031b1c19161790555b6040810151805160048401916001600160401b038211610935576107038354612d7c565b601f81116108f0575b506020908a601f841160011461086a576020989561080f95855f516020613a375f395f51905f529c9a966108559a96600f966101a0969261085f575b50508160011b915f199060031b1c19161790555b6060810151600585015561077960808201511515600686016132ef565b60a0810151600785015560c0810151600885015560e08101516009850155610100810151600a850155610120810151600b850155610140810151600c850155610160810151600d850155610180810151600e8501550151910155848952601386526040808a209154905191906001600160a01b03166107f783612cb9565b8a835287830152896040830152426060830152613455565b828752601484526040872060078201549160096008820154910154906040519361083885612c66565b84528684015260408301524260608301526001608083015261333a565b604051908152a280f35b015190505f80610748565b50838b52818b209190601f1984168c5b8181106108d857509561080f956001866108559a96600f965f516020613a375f395f51905f529f9d999660209f9c976101a098106108c0575b505050811b01905561075c565b01515f1960f88460031b161c191690555f80806108b3565b9293602060018192878601518155019501930161087a565b838b5260208b20601f840160051c8101916020851061092b575b601f0160051c01905b818110610920575061070c565b8b8155600101610913565b909150819061090a565b634e487b7160e01b8a52604160045260248afd5b015190505f806106cb565b848c52818c209250601f1984168c5b81811061099e5750908460019594939210610986575b505050811b0190556106df565b01515f1960f88460031b161c191690555f8080610979565b92936020600181928786015181550195019301610963565b909150838b5260208b20601f840160051c810191602085106109fc575b90601f859493920160051c01905b8181106109ee57506106b5565b8c81558493506001016109e1565b90915081906109d3565b015190505f80610672565b848c52818c209250601f1984168c5b818110610a5b5750908460019594939210610a43575b505050811b019055610686565b01515f1960f88460031b161c191690555f8080610a36565b92936020600181928786015181550195019301610a20565b909150838b5260208b20601f840160051c81019160208510610ab9575b90601f859493920160051c01905b818110610aab575061065c565b8c8155849350600101610a9e565b9091508190610a90565b634e487b7160e01b5f52604160045260245ffd5b6339e3563760e11b85526004859052602485fd5b633250574960e11b86526004869052602486fd5b50346102b15760403660031901126102b157610b36600435610b1f612bf8565b90610b31610b2c82613226565b61379d565b6138d5565b5080f35b50346102b157610b4936612d66565b919081526013602052604081209081548310156102b1576080610b6c848461300d565b50805460018201546002830154600390930154604080516001600160a01b039485168152929093166020830152918101929092526060820152f35b34610bfc576020366003190112610bfc57610bc36004356135da565b505f604051610bd3602082612cd4565b526102ad604051610be5602082612cd4565b5f8152604051918291602083526020830190612bbe565b5f80fd5b34610bfc57610c0e36612d66565b905f52601560205260405f20908154811015610bfc57610c2d91612ff4565b508054600182015491610cb460018060a01b03600283015416916003810154600482015460058301549060ff600685015416926008610c6e60078701612db4565b95015496604051998a998a5260208a015260408901526060880152608087015260a0860152610c9c81612c48565b60c085015261012060e0850152610120840190612bbe565b906101008301520390f35b34610bfc576020366003190112610bfc57610cd8613705565b600435600f55005b34610bfc576080366003190112610bfc57610cf9612be2565b610d01612bf8565b606435916001600160401b038311610bfc5736602384011215610bfc57610d35610d3f933690602481600401359101612d12565b91604435916134c1565b005b34610bfc576040366003190112610bfc576004356024356001600160401b038111610bfc57610d74903690600401612d48565b90610d7d613754565b805f526012602052601160405f206010810160028154610da360ff821661056c81612c48565b60ff191617905583519391016001600160401b038411610ac357610dc78154612d7c565b601f8111610ea7575b50602093601f8111600114610e34579081610e2493925f5160206139b75f395f51905f5295965f91610e29575b508160011b915f199060031b1c19161790555b604051918291602083526020830190612bbe565b0390a2005b905083015187610dfd565b601f198116825f52855f20905f5b818110610e8f5750916001915f5160206139b75f395f51905f52969782610e2497969510610e77575b5050811b019055610e10565b8501515f1960f88460031b161c191690558780610e6b565b85880151835560209788019760019093019201610e42565b815f5260205f20601f860160051c81019160208710610ee2575b601f0160051c01905b818110610ed75750610dd0565b5f8155600101610eca565b9091508190610ec1565b34610bfc575f366003190112610bfc576010546040516001600160a01b039091168152602090f35b34610bfc576040366003190112610bfc57610f2d612be2565b6024359081151590818303610bfc573315610fb2576001600160a01b0316918215610f9f57610f7190335f52600560205260405f20845f5260205260405f206132ef565b6040519081527f17307eab39ab6107e8899845ad3d59bd9653f200f220920489ca2b5937696c3160203392a3005b82630b61174360e31b5f5260045260245ffd5b63a9fbf51f60e01b5f525f60045260245ffd5b34610bfc576020366003190112610bfc576004355f52600b602052602060ff60405f2054166040519015158152f35b34610bfc575f366003190112610bfc5760206040515f8152f35b34610bfc576060366003190112610bfc576044356001600160401b038111610bfc5761103e903690600401612d48565b611046613754565b6004355f526015602052600761106160243560405f20612ff4565b50600681016002815461107a60ff821661056c81612c48565b60ff191617905582519101906001600160401b038111610ac35761109e8254612d7c565b601f811161113f575b50602092601f82116001146110e357928192935f926110d8575b50505f19600383901b1c191660019190911b179055005b0151905083806110c1565b601f19821693835f52805f20915f5b868110611127575083600195961061110f575b505050811b019055005b01515f1960f88460031b161c19169055838080611105565b919260206001819286850151815501940192016110f2565b825f5260205f20601f830160051c8101916020841061117a575b601f0160051c01905b81811061116f57506110a7565b5f8155600101611162565b9091508190611159565b6020366003190112610bfc57600435805f52600b60205260ff60405f205416156112e9576001600160a01b036111b9826135da565b166111c68133141561338c565b815f52600c6020526111de60405f20543410156133c8565b5f80808060646111f0600e54346132dc565b04946111fc8634613407565b905af16112076132ad565b50156112ad5780151580611299575b611270575b50805f52600d60205260405f2060018060a01b03331660018060a01b03198254161790557fddf30198c8f217b33732c1d9c4f25fef5319d97880bd3b5f777aad155eb6659960408051338152346020820152a2005b5f8080806112939460018060a01b03601054165af161128d6132ad565b50613414565b8161121b565b506010546001600160a01b03161515611216565b60405162461bcd60e51b815260206004820152601460248201527313dddb995c881c185e5b595b9d0819985a5b195960621b6044820152606490fd5b60405162461bcd60e51b815260206004820152600c60248201526b139bdd08199bdc881c995b9d60a21b6044820152606490fd5b34610bfc575f366003190112610bfc576040515f60015461133d81612d7c565b80845290600181169081156113c35750600114611365575b6102ad83610e1081850382612cd4565b60015f9081527fb10e2d527612073b26eecdfd717e6a320cf44b4afac2b0732d9fcbe2b7fa0cf6939250905b8082106113a957509091508101602001610e10611355565b919260018160209254838588010152019101909291611391565b60ff191660208086019190915291151560051b84019091019150610e109050611355565b34610bfc576040366003190112610bfc57611400612bf8565b6004355f52600660205260405f209060018060a01b03165f52602052602060ff60405f2054166040519015158152f35b34610bfc576020366003190112610bfc576004355f52600d602052602060018060a01b0360405f205416604051908152f35b34610bfc5761147036612d66565b905f52601460205260405f208054821015610bfc5760a09161149191612fc7565b50805490600181015490600281015460046003830154920154926040519485526020850152604084015260608301526080820152f35b34610bfc576020366003190112610bfc576004355f908152601260205260409020805460018201546001600160a01b0316916102ad9061150960028201612e54565b61153f611520601160ff6010860154169401612db4565b916040519687968752602087015260a0604087015260a0860190612f0a565b9161154981612c48565b60608501528382036080850152612bbe565b34610bfc575f366003190112610bfc576020600e54604051908152f35b34610bfc575f366003190112610bfc5760206040515f516020613a175f395f51905f528152f35b34610bfc576020366003190112610bfc576001600160a01b036115c0612be2565b1680156115dd575f526003602052602060405f2054604051908152f35b6322718ad960e21b5f525f60045260245ffd5b34610bfc576020366003190112610bfc57610d3f61160c612be2565b611614613705565b6137d7565b6020366003190112610bfc57600435805f52601160205260405f2061163d826135da565b600682019060ff8254161561182d576001600160a01b03166116613382141561338c565b61167160058401543410156133c8565b606461167f600e54346132dc565b0461168a8134613407565b600160ff19600a541617600a55331561181a576001600160a01b036116af873361360e565b16806116c85786637e27328960e01b5f5260045260245ffd5b83810361180057505f8080809360ff19600a5416600a55865af16116ea6132ad565b50156117c3577fddd64180d9701c7ede08673ac8106484ff983a472929330d4fbde4e35d65cb0693606093826001931515806117b1575b61178f575b50865f52601360205261175c60405f206040519061174382612cb9565b8682523360208301523460408301524288830152613455565b805460ff191690550180546001600160a01b031916339081179091556040805192835260208301919091523490820152a2005b5f8080806117ab94888060a01b03601054165af161128d6132ad565b87611726565b50838060a01b03601054161515611721565b60405162461bcd60e51b815260206004820152601560248201527414d95b1b195c881c185e5b595b9d0819985a5b1959605a1b6044820152606490fd5b86846364283d7b60e01b5f5260045260245260445260645ffd5b633250574960e11b5f525f60045260245ffd5b60405162461bcd60e51b815260206004820152600c60248201526b4e6f7420666f722073616c6560a01b6044820152606490fd5b34610bfc576020366003190112610bfc576004355f52600c602052602060405f2054604051908152f35b34610bfc576118b861189c36612d66565b6118a7929192613754565b825f52601560205260405f20612ff4565b5060068101600181546118d160ff821661056c81612c48565b60ff1916179055815f52601460205260405f2054906001820180921161199b577f9032a8a0e1ddaa3ecac1b60708fe90ceb446eb9b8ff9dec3fdb96a5650ebd0e891604091845f526014602052825f20906003810191611963835460048401926005845495019485549089519361194785612c66565b845260208401528883015242606083015286608083015261333a565b82545f8881526011602090815287822060070192909255915486832060080155915490859020600901559054835192835290820152a2005b634e487b7160e01b5f52601160045260245ffd5b34610bfc576020366003190112610bfc5760206119cd6004356135da565b6040516001600160a01b039091168152f35b34610bfc576119ed36612d66565b6119f96102cf836135da565b8015611a7257815f526011602052600660405f2001600160ff19825416179055670de0b6b3a76400008102908104670de0b6b3a76400000361199b5760207fd2acfbe1632c42ab1e36cabad615126d27fa805ef1e2efc7ceec17c60ffbaafd91835f526011825280600560405f200155604051908152a2005b60405162461bcd60e51b815260206004820152601160248201527005072696365206d757374206265203e203607c1b6044820152606490fd5b6020366003190112610bfc576004356001600160401b038111610bfc576101c06003198236030112610bfc5760405190611ae482612c9d565b60048101356001600160401b038111610bfc57611b079060043691840101612d48565b825260248101356001600160401b038111610bfc57611b2c9060043691840101612d48565b602083015260448101356001600160401b038111610bfc57611b549060043691840101612d48565b60408301526060820190606481013582526084810135908115158203610bfc576101a491608085015260a481013560a085015260c481013560c085015260e481013560e085015261010481013561010085015261012481013561012085015261014481013561014085015261016481013561016085015261018481013561018085015201356101a0830152600f543410612219576010546001600160a01b0316806121c1575b50805190670de0b6b3a7640000820291808304670de0b6b3a7640000149015171561199b575260085490611c2d82613287565b60085560405190611c3d82612c66565b828252602082013381526040830192828452606081015f815260209460405193611c678786612cd4565b5f80865260808501958652888152601288526040902093518455516001840180546001600160a01b0319166001600160a01b0392909216919091179055518051805160028501916001600160401b038211610ac3578190611cc88454612d7c565b601f8111612173575b508990601f8311600114612110575f92612105575b50508160011b915f199060031b1c19161790555b80860151805160038501916001600160401b038211610ac3578190611d1f8454612d7c565b601f81116120b7575b508990601f8311600114612054575f92612049575b50508160011b915f199060031b1c19161790555b6040810151805160048501916001600160401b038211610ac357611d758354612d7c565b601f8111612006575b508890601f8311600114611f975792826101a093611e43969360119998965f92611f8c575b50508160011b915f199060031b1c19161790555b60608101516005860155611dd460808201511515600687016132ef565b60a0810151600786015560c0810151600886015560e08101516009860155610100810151600a860155610120810151600b860155610140810151600c860155610160810151600d860155610180810151600e8601550151600f84015551611e3a81612c48565b60108301613295565b9151805191909201916001600160401b038211610ac357611e648354612d7c565b601f8111611f49575b508490601f8311600114611ed1579282610e2493604096935f5160206139975f395f51905f5298965f92611ec6575b50508160011b915f199060031b1c19161790555b5183519384933385528401526040830190612bbe565b015190508980611e9c565b90601f19831691845f52865f20925f5b818110611f32575093604096935f5160206139975f395f51905f5298969360019383610e249810611f1a575b505050811b019055611eb0565b01515f1960f88460031b161c19169055898080611f0d565b929388600181928786015181550195019301611ee1565b835f52855f20601f840160051c810191878510611f82575b601f0160051c01905b818110611f775750611e6d565b5f8155600101611f6a565b9091508190611f61565b015190508d80611da3565b90601f19831691845f528a5f20925f5b8c828210611ff057505093611e439693601199989693600193836101a09810611fd8575b505050811b019055611db7565b01515f1960f88460031b161c191690558d8080611fcb565b6001859682939686015181550195019301611fa7565b835f52895f20601f840160051c8101918b851061203f575b601f0160051c01905b8181106120345750611d7e565b5f8155600101612027565b909150819061201e565b015190508a80611d3d565b5f8581528b81209350601f198516905b8c8282106120a1575050908460019594939210612089575b505050811b019055611d51565b01515f1960f88460031b161c191690558a808061207c565b6001859682939686015181550195019301612064565b909150835f52895f20601f840160051c8101918b85106120fb575b90601f859493920160051c01905b8181106120ed5750611d28565b5f81558493506001016120e0565b90915081906120d2565b015190508a80611ce6565b5f8581528b81209350601f198516905b8c82821061215d575050908460019594939210612145575b505050811b019055611cfa565b01515f1960f88460031b161c191690558a8080612138565b6001859682939686015181550195019301612120565b909150835f52895f20601f840160051c8101918b85106121b7575b90601f859493920160051c01905b8181106121a95750611cd1565b5f815584935060010161219c565b909150819061218e565b5f8080809334905af16121d26132ad565b50156121de5782611bfa565b60405162461bcd60e51b8152602060048201526013602482015272119959481d1c985b9cd9995c8819985a5b1959606a1b6044820152606490fd5b60405162461bcd60e51b815260206004820152601d60248201527f496e73756666696369656e7420726567697374726174696f6e206665650000006044820152606490fd5b34610bfc57610d3f61226f36612c0e565b906040519261227f602085612cd4565b5f84526134c1565b34610bfc576020366003190112610bfc576004355f52601560205260405f208054906122b282613238565b916122c06040519384612cd4565b8083526020830180925f5260205f205f915b8383106123ab57848660405191829160208301906020845251809152604083019060408160051b85010192915f905b82821061231057505050500390f35b919360019193955060208091603f19898203018552875190815181528282015183820152848060a01b036040830151166040820152606082015160608201526080820151608082015260a082015160a082015260c082015161237181612c48565b60c08201526101008061239560e085015161012060e0860152610120850190612bbe565b9301519101529601920192018594939192612301565b600960206001926040516123be81612c81565b855481528486015483820152848060a01b0360028701541660408201526003860154606082015260048601546080820152600586015460a082015260ff60068701541661240a81612c48565b60c082015261241b60078701612db4565b60e082015260088601546101008201528152019201920191906122d2565b34610bfc576080366003190112610bfc576004356124596102cf826135da565b6009549061246682613287565b600955805f52601560205260405f206040519261248284612c81565b835260208301918252604083013381526060840193602435855260808101604435815260a08201606435815260c08301915f8352602097604051956124c78a88612cd4565b5f875260e086019687526101008601974289528054600160401b811015610ac3576124f791600182018155612ff4565b99909961267057955189559451600189015593516002880180546001600160a01b0319166001600160a01b0392909216919091179055925160038701559151600486015590516005850155516125599061255081612c48565b60068501613295565b51805190936007840191906001600160401b038211610ac35761257c8354612d7c565b601f811161262d575b5080601f83116001146125c557508190600895965f926125ba575b50508160011b915f199060031b1c19161790555b51910155005b0151905086806125a0565b90601f19831696845f52825f20925f905b8982106126155750509083929160019460089899106125fd575b505050811b0190556125b4565b01515f1960f88460031b161c191690558680806125f0565b806001859682949686015181550195019301906125d6565b835f52815f20601f840160051c810191838510612666575b601f0160051c01905b81811061265b5750612585565b5f815560010161264e565b9091508190612645565b634e487b7160e01b5f525f60045260245ffd5b34610bfc576040366003190112610bfc5761269c612bf8565b336001600160a01b038216036126b857610d3f906004356138d5565b63334bd91960e11b5f5260045ffd5b34610bfc576020366003190112610bfc576004355f526011602052606060405f20600781015490600960088201549101549060405192835260208301526040820152f35b34610bfc576020366003190112610bfc57600435612727613705565b600a811161273457600e55005b60405162461bcd60e51b8152602060048201526013602482015272086dedadad2e6e6d2dedc40e8dede40d0d2ced606b1b6044820152606490fd5b34610bfc576040366003190112610bfc57610d3f60043561278e612bf8565b9061279b610b2c82613226565b61385c565b34610bfc576020366003190112610bfc576127b9612be2565b6001600160a01b03165f9081525f5160206139d75f395f51905f52602090815260409182902054915160ff9092161515825290f35b34610bfc576020366003190112610bfc576004355f52601460205260405f2080549061281982613238565b916128276040519384612cd4565b8083526020830180925f5260205f205f915b8383106128af578486604051918291602083019060208452518091526040830191905f5b81811061286b575050500390f35b91935091602060a06001926080875180518352848101518584015260408101516040840152606081015160608401520151608082015201940191019184939261285d565b600560206001926040516128c281612c66565b855481528486015483820152600286015460408201526003860154606082015260048601546080820152815201920192019190612839565b34610bfc576020366003190112610bfc576020612918600435613226565b604051908152f35b34610bfc57610d3f61293136612c0e565b91613026565b34610bfc575f366003190112610bfc576020600754604051908152f35b34610bfc575f366003190112610bfc576020600f54604051908152f35b34610bfc576040366003190112610bfc5761298a612be2565b602435612996816135da565b33151580612a48575b80612a1b575b612a085781906001600160a01b0384811691167f8c5be1e5ebec7d5bd14f71427d1e84f3dd0314c0f7b2291e5b200ac8c7c3b9255f80a45f90815260046020526040902080546001600160a01b0319166001600160a01b03909216919091179055005b63a9fbf51f60e01b5f523360045260245ffd5b506001600160a01b0381165f90815260056020908152604080832033845290915290205460ff16156129a5565b506001600160a01b03811633141561299f565b34610bfc576020366003190112610bfc57600435612a78816135da565b505f526004602052602060018060a01b0360405f205416604051908152f35b34610bfc575f366003190112610bfc576040515f5f54612ab681612d7c565b80845290600181169081156113c35750600114612add576102ad83610e1081850382612cd4565b5f8080527f290decd9548b62a8d60345a988386fc84ba6bc95484008f6362f93160ef3e563939250905b808210612b1f57509091508101602001610e10611355565b919260018160209254838588010152019101909291612b07565b34610bfc576020366003190112610bfc576004359063ffffffff60e01b8216809203610bfc57602091637965db0b60e01b8114908115612b7b575b5015158152f35b6380ac58cd60e01b811491508115612bad575b8115612b9c575b5083612b74565b6301ffc9a760e01b14905083612b95565b635b5e139f60e01b81149150612b8e565b805180835260209291819084018484015e5f828201840152601f01601f1916010190565b600435906001600160a01b0382168203610bfc57565b602435906001600160a01b0382168203610bfc57565b6060906003190112610bfc576004356001600160a01b0381168103610bfc57906024356001600160a01b0381168103610bfc579060443590565b60031115612c5257565b634e487b7160e01b5f52602160045260245ffd5b60a081019081106001600160401b03821117610ac357604052565b61012081019081106001600160401b03821117610ac357604052565b6101c081019081106001600160401b03821117610ac357604052565b608081019081106001600160401b03821117610ac357604052565b601f909101601f19168101906001600160401b03821190821017610ac357604052565b6001600160401b038111610ac357601f01601f191660200190565b929192612d1e82612cf7565b91612d2c6040519384612cd4565b829481845281830111610bfc578281602093845f960137010152565b9080601f83011215610bfc57816020612d6393359101612d12565b90565b6040906003190112610bfc576004359060243590565b90600182811c92168015612daa575b6020831014612d9657565b634e487b7160e01b5f52602260045260245ffd5b91607f1691612d8b565b9060405191825f825492612dc784612d7c565b8084529360018116908115612e325750600114612dee575b50612dec92500383612cd4565b565b90505f9291925260205f20905f915b818310612e16575050906020612dec928201015f612ddf565b6020919350806001915483858901015201910190918492612dfd565b905060209250612dec94915060ff191682840152151560051b8201015f612ddf565b90604051612e6181612c9d565b6101a0600d8294612e7181612db4565b8452612e7f60018201612db4565b6020850152612e9060028201612db4565b60408501526003810154606085015260ff60048201541615156080850152600581015460a0850152600681015460c0850152600781015460e085015260088101546101008501526009810154610120850152600a810154610140850152600b810154610160850152600c8101546101808501520154910152565b906101a080612f4e612f3c612f2a86516101c087526101c0870190612bbe565b60208701518682036020880152612bbe565b60408601518582036040870152612bbe565b936060810151606085015260808101511515608085015260a081015160a085015260c081015160c085015260e081015160e0850152610100810151610100850152610120810151610120850152610140810151610140850152610160810151610160850152610180810151610180850152015191015290565b8054821015612fe0575f52600560205f20910201905f90565b634e487b7160e01b5f52603260045260245ffd5b8054821015612fe0575f52600960205f20910201905f90565b8054821015612fe0575f5260205f209060021b01905f90565b6001600160a01b039091169190821561181a575f828152600260205260409020546001600160a01b0316151580613201575b806131f4575b6131af575f828152600260205260409020546001600160a01b03169282903315158061311a575b50846130f9575b805f52600360205260405f2060018154019055815f52600260205260405f208160018060a01b0319825416179055845f5160206139f75f395f51905f525f80a46001600160a01b03168083036130e157505050565b6364283d7b60e01b5f5260045260245260445260645ffd5b61310282613959565b845f52600360205260405f205f19815401905561308c565b9091508061315e575b156131305782905f613085565b828461314857637e27328960e01b5f5260045260245ffd5b63177e802f60e01b5f523360045260245260445ffd5b50338414801561318d575b8061312357505f838152600460205260409020546001600160a01b03163314613123565b505f84815260056020908152604080832033845290915290205460ff16613169565b60405162461bcd60e51b815260206004820152601f60248201527f5573652062757950726f7065727479206f722072656e7450726f7065727479006044820152606490fd5b5060ff600a54161561305e565b50335f9081525f5160206139d75f395f51905f52602052604090205460ff1615613058565b5f526006602052600160405f20015490565b6001600160401b038111610ac35760051b60200190565b1561325657565b60405162461bcd60e51b81526020600482015260096024820152682737ba1037bbb732b960b91b6044820152606490fd5b5f19811461199b5760010190565b9061329f81612c48565b60ff80198354169116179055565b3d156132d7573d906132be82612cf7565b916132cc6040519384612cd4565b82523d5f602084013e565b606090565b8181029291811591840414171561199b57565b9060ff801983541691151516179055565b1561330757565b60405162461bcd60e51b815260206004820152600b60248201526a4e6f742070656e64696e6760a81b6044820152606490fd5b8054600160401b811015610ac35761335791600182018155612fc7565b919091612670576080816004925184556020810151600185015560408101516002850155606081015160038501550151910155565b1561339357565b60405162461bcd60e51b815260206004820152600d60248201526c20b63932b0b23c9037bbb732b960991b6044820152606490fd5b156133cf57565b60405162461bcd60e51b815260206004820152601060248201526f092dce6eaccccd2c6d2cadce8408aa8960831b6044820152606490fd5b9190820391821161199b57565b1561341b57565b60405162461bcd60e51b815260206004820152601260248201527111dbdd881c185e5b595b9d0819985a5b195960721b6044820152606490fd5b8054600160401b811015610ac3576134729160018201815561300d565b91909161267057805182546001600160a01b039182166001600160a01b031991821617845560208301516001850180549190931691161790556040810151600283015560600151600390910155565b92916134ce818386613026565b813b6134db575b50505050565b604051630a85bd0160e11b81523360048201526001600160a01b0394851660248201526044810191909152608060648201529216919060209082908190613526906084830190612bbe565b03815f865af15f9181613595575b5061356257506135426132ad565b8051908161355d5782633250574960e11b5f5260045260245ffd5b602001fd5b6001600160e01b03191663757a42ff60e11b0161358357505f8080806134d5565b633250574960e11b5f5260045260245ffd5b9091506020813d6020116135d2575b816135b160209383612cd4565b81010312610bfc57516001600160e01b031981168103610bfc57905f613534565b3d91506135a4565b5f818152600260205260409020546001600160a01b03169081156135fc575090565b637e27328960e01b5f5260045260245ffd5b5f828152600260205260409020549091906001600160a01b03161515806136e0575b806136d3575b6131af575f818152600260205260409020546001600160a01b031691826136b2575b6001600160a01b03168061369a575b5f82815260026020526040812080546001600160a01b0319168317905583905f5160206139f75f395f51905f529080a490565b805f52600360205260405f2060018154019055613667565b6136bb82613959565b825f52600360205260405f205f198154019055613658565b5060ff600a541615613636565b50335f9081525f5160206139d75f395f51905f52602052604090205460ff1615613630565b335f9081527f54cdd369e4e8a8515e52ca72ec816c2101831ad1f18bf44102ed171459c9b4f8602052604090205460ff161561373d57565b63e2517d3f60e01b5f52336004525f60245260445ffd5b335f9081525f5160206139d75f395f51905f52602052604090205460ff161561377957565b63e2517d3f60e01b5f52336004525f516020613a175f395f51905f5260245260445ffd5b5f81815260066020908152604080832033845290915290205460ff16156137c15750565b63e2517d3f60e01b5f523360045260245260445ffd5b6001600160a01b0381165f9081525f5160206139d75f395f51905f52602052604090205460ff16613857576001600160a01b03165f8181525f5160206139d75f395f51905f5260205260408120805460ff191660011790553391905f516020613a175f395f51905f52905f5160206139775f395f51905f529080a4600190565b505f90565b5f8181526006602090815260408083206001600160a01b038616845290915290205460ff166138cf575f8181526006602090815260408083206001600160a01b0395909516808452949091528120805460ff19166001179055339291905f5160206139775f395f51905f529080a4600190565b50505f90565b5f8181526006602090815260408083206001600160a01b038616845290915290205460ff16156138cf575f8181526006602090815260408083206001600160a01b0395909516808452949091528120805460ff19169055339291907ff6391f5c32d9c69d2a47ea670b442974b53935d1edc7fd64eb21e047a839171b9080a4600190565b5f90815260046020526040902080546001600160a01b031916905556fe2f8788117e7eff1d82e926ec794901d17c78024a50270940304540a733656f0dc86d611ad2e111a956a8759fe9c4422543f4583e462628c95cb2c20e1c0df9eb544ed8f25bea0ebc5279f4d75c2bd009d5fac6f14adb99dfc47c43a4a53d79a80c3bb05773fb95f6688e1e7d9c896674dccd66884026cf30a3d5e3a9bfecd811ddf252ad1be2c89b69c2b068fc378daa952ba7f163c4a11628f55a4df523b3efa49807205ce4d355092ef5a8a18f56e8913cf4a201fbe287825b095693c2177599593786774c6f33049716fd956b1672f46813adf0f67f51f81345b36ba0b847a264697066735822122010af24d700c7c4bb1bd39ca53f176dfe8bff1f5b8466767bc0a404accb70460164736f6c634300081c00332f8788117e7eff1d82e926ec794901d17c78024a50270940304540a733656f0d0c3bb05773fb95f6688e1e7d9c896674dccd66884026cf30a3d5e3a9bfecd81154cdd369e4e8a8515e52ca72ec816c2101831ad1f18bf44102ed171459c9b4f8",
  "linkReferences": {},
  "deployedLinkReferences": {},
  "immutableReferences": {},
  "inputSourceName": "project/contracts/RealEstate.sol",
  "buildInfoId": "solc-0_8_28-9e46db305df9a488dc946a78d6eb90729ee0f1a7"
}